                         --- INICIO DO RELATORIO ---                                                     --- INICIO DO RELATORIO ---                            
                                                                                                                                                                
CONTAS A SEREM INATIVADAS        12/05/2014        11:01:29        - 1 -                                                                                        
                                                                                                                                                                
LOCATION CONTA CACS         CUSTOMER NAME                                 SOCIAL SEC           PHONE                     TOTAL-DELINQ             INTEREST      
-------- ------------------ --------------------------------------------- -------------------- ----------------- -------------------- --------------------      
010101   00001022024CPES001 INATIVAR CONTA                                000010220000024      00000000000000000                    0                    0      
010101   00001658328CPES011 INATIVAR CONTA                                000016583000028      00000000000000000                    0                    0      
010101   00010481206CPES001 INATIVAR CONTA                                000104812000006      00000000000000000                    0                    0      
010101   00028542010CPES011 INATIVAR CONTA                                000285420000010      00000000000000000                    0                    0      
010101   00036044202CPES002 INATIVAR CONTA                                000360442000002      00000000000000000                    0                    0      
010101   00040546012CDCV002 INATIVAR CONTA                                000405460000012      00000000000000000                    0                    0      
010101   00040546012CPES002 INATIVAR CONTA                                000405460000012      00000000000000000                    0                    0      
010101   00040806103CPES004 INATIVAR CONTA                                000408061000003      00000000000000000                    0                    0      
010101   00040828697CPES012 INATIVAR CONTA                                000408286000097      00000000000000000                    0                    0      
010101   00041650204CPES002 INATIVAR CONTA                                000416502000004      00000000000000000                    0                    0      
010101   00045805750RENG002 INATIVAR CONTA                                000458057000050      00000000000000000                    0                    0      
010101   00048966371CPES001 INATIVAR CONTA                                000489663000071      00000000000000000                    0                    0      
010101   00051105306CPES003 INATIVAR CONTA                                000511053000006      00000000000000000                    0                    0      
010101   00051932067DCCO001 INATIVAR CONTA                                999999999999999      00000000000000000                    0                    0      
010101   00056992157CPES006 INATIVAR CONTA                                000569921000057      00000000000000000                    0                    0      
010101   00056992157CPES007 INATIVAR CONTA                                000569921000057      00000000000000000                    0                    0      
010101   00060582219CPES002 INATIVAR CONTA                                000605822000019      00000000000000000                    0                    0      
010101   00067052606CPES001 INATIVAR CONTA                                000670526000006      00000000000000000                    0                    0      
010101   00074822306RENG001 INATIVAR CONTA                                000748223000006      00000000000000000                    0                    0      
010101   00076431606RENG002 INATIVAR CONTA                                000764316000006      00000000000000000                    0                    0      
010101   00077913302CPES001 INATIVAR CONTA                                000779133000002      00000000000000000                    0                    0      
010101   00081686102CPES001 INATIVAR CONTA                                000816861000002      00000000000000000                    0                    0      
010101   00082582440CPES004 INATIVAR CONTA                                000825824000040      00000000000000000                    0                    0      
010101   00082688192CPES001 INATIVAR CONTA                                000826881000092      00000000000000000                    0                    0      
010101   00082875383CPES001 INATIVAR CONTA                                000828753000083      00000000000000000                    0                    0      
010101   00085076511RENG001 INATIVAR CONTA                                000850765000011      00000000000000000                    0                    0      
010101   00086798510RENG001 INATIVAR CONTA                                000867985000010      00000000000000000                    0                    0      
010101   00086829335CPES001 INATIVAR CONTA                                000868293000035      00000000000000000                    0                    0      
010101   00086926101CPES003 INATIVAR CONTA                                000869261000001      00000000000000000                    0                    0      
010101   00088891127RENG002 INATIVAR CONTA                                000888911000027      00000000000000000                    0                    0      
010101   00089590643CPES001 INATIVAR CONTA                                000895906000043      00000000000000000                    0                    0      
010101   00094656690CPES005 INATIVAR CONTA                                000946566000090      00000000000000000                    0                    0      
010101   00104590300CPES001 INATIVAR CONTA                                001045903000000      00000000000000000                    0                    0      
010101   00107975130RENG005 INATIVAR CONTA                                001079751000030      00000000000000000                    0                    0      
010101   00111859379CPES001 INATIVAR CONTA                                001118593000079      00000000000000000                    0                    0      
010101   00113228619RENG001 INATIVAR CONTA                                001132286000019      00000000000000000                    0                    0      
010101   00118040766CPES001 INATIVAR CONTA                                001180407000066      00000000000000000                    0                    0      
010101   00120258285CPES011 INATIVAR CONTA                                001202582000085      00000000000000000                    0                    0      
010101   00122854551CPES006 INATIVAR CONTA                                001228545000051      00000000000000000                    0                    0      
010101   00128665122RENG001 INATIVAR CONTA                                001286651000022      00000000000000000                    0                    0      
010101   00129812145CPES003 INATIVAR CONTA                                001298121000045      00000000000000000                    0                    0      
010101   00129812145CPES004 INATIVAR CONTA                                001298121000045      00000000000000000                    0                    0      
010101   00148939678CPES001 INATIVAR CONTA                                001489396000078      00000000000000000                    0                    0      
010101   00151660077CPES028 INATIVAR CONTA                                001516600000077      00000000000000000                    0                    0      
010101   00160168589CPES001 INATIVAR CONTA                                001601685000089      00000000000000000                    0                    0      
010101   00166315281CPES058 INATIVAR CONTA                                001663152000081      00000000000000000                    0                    0      
010101   00166315281CPES059 INATIVAR CONTA                                001663152000081      00000000000000000                    0                    0      
010101   00166315281CPES060 INATIVAR CONTA                                001663152000081      00000000000000000                    0                    0      
010101   00166315281CPES061 INATIVAR CONTA                                001663152000081      00000000000000000                    0                    0      
010101   00169274608RENG002 INATIVAR CONTA                                001692746000008      00000000000000000                    0                    0      
010101   00169448010CPES001 INATIVAR CONTA                                001694480000010      00000000000000000                    0                    0      
010101   00174783086CDCV001 INATIVAR CONTA                                001747830000086      00000000000000000                    0                    0      
010101   00178178039CHEP001 INATIVAR CONTA                                001781780000039      00000000000000000                    0                    0      
010101   00182726576RENG001 INATIVAR CONTA                                001827265000076      00000000000000000                    0                    0      
                                                                                                                                                                
CONTAS A SEREM INATIVADAS        12/05/2014        11:01:29        - 2 -                                                                                        
                                                                                                                                                                
LOCATION CONTA CACS         CUSTOMER NAME                                 SOCIAL SEC           PHONE                     TOTAL-DELINQ             INTEREST      
-------- ------------------ --------------------------------------------- -------------------- ----------------- -------------------- --------------------      
010101   00190404078RENG003 INATIVAR CONTA                                001904040000078      00000000000000000                    0                    0      
010101   00190743360CPES005 INATIVAR CONTA                                999999999999999      00000000000000000                    0                    0      
010101   00195474120CPES001 INATIVAR CONTA                                001954741000020      00000000000000000                    0                    0      
010101   00200452398RENG002 INATIVAR CONTA                                002004523000098      00000000000000000                    0                    0      
010101   00202169391DCCO001 INATIVAR CONTA                                999999999999999      00000000000000000                    0                    0      
010101   00206031505CHEP001 INATIVAR CONTA                                999999999999999      00000000000000000                    0                    0      
010101   00218692510CPES009 INATIVAR CONTA                                002186925000010      00000000000000000                    0                    0      
010101   00219026823CPES009 INATIVAR CONTA                                002190268000023      00000000000000000                    0                    0      
010101   00219026823CPES011 INATIVAR CONTA                                002190268000023      00000000000000000                    0                    0      
010101   00220072531CHEP001 INATIVAR CONTA                                002200725000031      00000000000000000                    0                    0      
010101   00222596279CPES001 INATIVAR CONTA                                002225962000079      00000000000000000                    0                    0      
010101   00225763559DBAU001 INATIVAR CONTA                                002257635000059      00000000000000000                    0                    0      
010101   00229207812CPES001 INATIVAR CONTA                                002292078000012      00000000000000000                    0                    0      
010101   00235396311CPES002 INATIVAR CONTA                                002353963000011      00000000000000000                    0                    0      
010101   00248329367CPES031 INATIVAR CONTA                                002483293000067      00000000000000000                    0                    0      
010101   00251024512CPES001 INATIVAR CONTA                                002510245000012      00000000000000000                    0                    0      
010101   00252926250CPES004 INATIVAR CONTA                                002529262000050      00000000000000000                    0                    0      
010101   00262455315CPES002 INATIVAR CONTA                                999999999999999      00000000000000000                    0                    0      
010101   00264145119CPES006 INATIVAR CONTA                                002641451000019      00000000000000000                    0                    0      
010101   00268515204CPES002 INATIVAR CONTA                                002685152000004      00000000000000000                    0                    0      
010101   00268741301CPES001 INATIVAR CONTA                                002687413000001      00000000000000000                    0                    0      
010101   00274432641CPES001 INATIVAR CONTA                                002744326000041      00000000000000000                    0                    0      
010101   00280591314RENG001 INATIVAR CONTA                                002805913000014      00000000000000000                    0                    0      
010101   00282861890CPES001 INATIVAR CONTA                                002828618000090      00000000000000000                    0                    0      
010101   00287892883CPES006 INATIVAR CONTA                                002878928000083      00000000000000000                    0                    0      
010101   00308176847CPES004 INATIVAR CONTA                                003081768000047      00000000000000000                    0                    0      
010101   00311067573CPES001 INATIVAR CONTA                                003110675000073      00000000000000000                    0                    0      
010101   00311184880CPES002 INATIVAR CONTA                                003111848000080      00000000000000000                    0                    0      
010101   00312841671CHEP001 INATIVAR CONTA                                003128416000071      00000000000000000                    0                    0      
010101   00314006206CPES001 INATIVAR CONTA                                003140062000006      00000000000000000                    0                    0      
010101   00319718220RENG001 INATIVAR CONTA                                003197182000020      00000000000000000                    0                    0      
010101   00319718220RENG002 INATIVAR CONTA                                003197182000020      00000000000000000                    0                    0      
010101   00326117148RENG001 INATIVAR CONTA                                003261171000048      00000000000000000                    0                    0      
010101   00335509991CIAL001 INATIVAR CONTA                                003355099000091      00000000000000000                    0                    0      
010101   00336011512CPES003 INATIVAR CONTA                                003360115000012      00000000000000000                    0                    0      
010101   00336575807CPES005 INATIVAR CONTA                                003365758000007      00000000000000000                    0                    0      
010101   00337180598DCCO001 INATIVAR CONTA                                003371805000098      00000000000000000                    0                    0      
010101   00341831328CPES001 INATIVAR CONTA                                003418313000028      00000000000000000                    0                    0      
010101   00343333120RENG001 INATIVAR CONTA                                999999999999999      00000000000000000                    0                    0      
010101   00347517501CPES008 INATIVAR CONTA                                003475175000001      00000000000000000                    0                    0      
010101   00350484333DCCO001 INATIVAR CONTA                                003504843000033      00000000000000000                    0                    0      
010101   00356186989CPES001 INATIVAR CONTA                                003561869000089      00000000000000000                    0                    0      
010101   00364210141CPES002 INATIVAR CONTA                                003642101000041      00000000000000000                    0                    0      
010101   00368052389CPES001 INATIVAR CONTA                                003680523000089      00000000000000000                    0                    0      
010101   00369210336CPES006 INATIVAR CONTA                                003692103000036      00000000000000000                    0                    0      
010101   00370726332CPES009 INATIVAR CONTA                                003707263000032      00000000000000000                    0                    0      
010101   00372582818CPES001 INATIVAR CONTA                                003725828000018      00000000000000000                    0                    0      
010101   00380077116RENG002 INATIVAR CONTA                                003800771000016      00000000000000000                    0                    0      
010101   00382726103CHEP001 INATIVAR CONTA                                003827261000003      00000000000000000                    0                    0      
010101   00389977896RENG001 INATIVAR CONTA                                003899778000096      00000000000000000                    0                    0      
010101   00390379247CPES003 INATIVAR CONTA                                003903792000047      00000000000000000                    0                    0      
010101   00391742124RENG002 INATIVAR CONTA                                003917421000024      00000000000000000                    0                    0      
010101   00393037304CPES012 INATIVAR CONTA                                999999999999999      00000000000000000                    0                    0      
010101   00393584372CPES007 INATIVAR CONTA                                999999999999999      00000000000000000                    0                    0      
                                                                                                                                                                
CONTAS A SEREM INATIVADAS        12/05/2014        11:01:29        - 3 -                                                                                        
                                                                                                                                                                
LOCATION CONTA CACS         CUSTOMER NAME                                 SOCIAL SEC           PHONE                     TOTAL-DELINQ             INTEREST      
-------- ------------------ --------------------------------------------- -------------------- ----------------- -------------------- --------------------      
010101   00394079850CPES002 INATIVAR CONTA                                003940798000050      00000000000000000                    0                    0      
010101   00394487974CPES001 INATIVAR CONTA                                003944879000074      00000000000000000                    0                    0      
010101   00395592704CPES001 INATIVAR CONTA                                999999999999999      00000000000000000                    0                    0      
010101   00397987390CPES001 INATIVAR CONTA                                003979873000090      00000000000000000                    0                    0      
010101   00404584314CPES008 INATIVAR CONTA                                004045843000014      00000000000000000                    0                    0      
010101   00408264900CPES001 INATIVAR CONTA                                004082649000000      00000000000000000                    0                    0      
010101   00416686346DCCO001 INATIVAR CONTA                                004166863000046      00000000000000000                    0                    0      
010101   00420757341RENG001 INATIVAR CONTA                                004207573000041      00000000000000000                    0                    0      
010101   00432966960CPES001 INATIVAR CONTA                                004329669000060      00000000000000000                    0                    0      
010101   00435398318CPES001 INATIVAR CONTA                                004353983000018      00000000000000000                    0                    0      
010101   00440169054CPES001 INATIVAR CONTA                                004401690000054      00000000000000000                    0                    0      
010101   00440773601CPES002 INATIVAR CONTA                                004407736000001      00000000000000000                    0                    0      
010101   00445166304CPES002 INATIVAR CONTA                                004451663000004      00000000000000000                    0                    0      
010101   00445868848CPES001 INATIVAR CONTA                                004458688000048      00000000000000000                    0                    0      
010101   00448934264CPES001 INATIVAR CONTA                                004489342000064      00000000000000000                    0                    0      
010101   00449949311CPES001 INATIVAR CONTA                                004499493000011      00000000000000000                    0                    0      
010101   00459943901RENG002 INATIVAR CONTA                                004599439000001      00000000000000000                    0                    0      
010101   00462629546CPES010 INATIVAR CONTA                                004626295000046      00000000000000000                    0                    0      
010101   00462831884CDCM001 INATIVAR CONTA                                004628318000084      00000000000000000                    0                    0      
010101   00466349084CPES003 INATIVAR CONTA                                004663490000084      00000000000000000                    0                    0      
010101   00471659525CPES001 INATIVAR CONTA                                004716595000025      00000000000000000                    0                    0      
010101   00480436215RENG001 INATIVAR CONTA                                004804362000015      00000000000000000                    0                    0      
010101   00482100990RENG001 INATIVAR CONTA                                004821009000090      00000000000000000                    0                    0      
010101   00485548631CPES001 INATIVAR CONTA                                004855486000031      00000000000000000                    0                    0      
010101   00490557201CPES004 INATIVAR CONTA                                004905572000001      00000000000000000                    0                    0      
010101   00493607528RENG001 INATIVAR CONTA                                004936075000028      00000000000000000                    0                    0      
010101   00495103713RENG001 INATIVAR CONTA                                004951037000013      00000000000000000                    0                    0      
010101   00499638565CPES002 INATIVAR CONTA                                004996385000065      00000000000000000                    0                    0      
010101   00510683037CPES001 INATIVAR CONTA                                005106830000037      00000000000000000                    0                    0      
010101   00516111981DCCO001 INATIVAR CONTA                                005161119000081      00000000000000000                    0                    0      
010101   00521247624RENG002 INATIVAR CONTA                                005212476000024      00000000000000000                    0                    0      
010101   00526428104CPES001 INATIVAR CONTA                                005264281000004      00000000000000000                    0                    0      
010101   00529572338CPES014 INATIVAR CONTA                                005295723000038      00000000000000000                    0                    0      
010101   00530265192CPES001 INATIVAR CONTA                                999999999999999      00000000000000000                    0                    0      
010101   00533501628CHEP001 INATIVAR CONTA                                005335016000028      00000000000000000                    0                    0      
010101   00533820219CPES016 INATIVAR CONTA                                005338202000019      00000000000000000                    0                    0      
010101   00539242829RENG002 INATIVAR CONTA                                005392428000029      00000000000000000                    0                    0      
010101   00544521552CPES001 INATIVAR CONTA                                005445215000052      00000000000000000                    0                    0      
010101   00552713082CPES001 INATIVAR CONTA                                005527130000082      00000000000000000                    0                    0      
010101   00553959379RENG002 INATIVAR CONTA                                005539593000079      00000000000000000                    0                    0      
010101   00556111176CDCV001 INATIVAR CONTA                                005561111000076      00000000000000000                    0                    0      
010101   00557326150CPES025 INATIVAR CONTA                                005573261000050      00000000000000000                    0                    0      
010101   00559681399RENG003 INATIVAR CONTA                                005596813000099      00000000000000000                    0                    0      
010101   00562575626RENG001 INATIVAR CONTA                                005625756000026      00000000000000000                    0                    0      
010101   00565344935DBAU001 INATIVAR CONTA                                005653449000035      00000000000000000                    0                    0      
010101   00566555840CPES001 INATIVAR CONTA                                005665558000040      00000000000000000                    0                    0      
010101   00573164142CPES002 INATIVAR CONTA                                005731641000042      00000000000000000                    0                    0      
010101   00573961247RENG001 INATIVAR CONTA                                005739612000047      00000000000000000                    0                    0      
010101   00575297603LEAS001 INATIVAR CONTA                                005752976000003      00000000000000000                    0                    0      
010101   00580476111RENG001 INATIVAR CONTA                                999999999999999      00000000000000000                    0                    0      
010101   00582995728CPES001 INATIVAR CONTA                                005829957000028      00000000000000000                    0                    0      
010101   00587635703CPES018 INATIVAR CONTA                                005876357000003      00000000000000000                    0                    0      
010101   00587711906RENG001 INATIVAR CONTA                                005877119000006      00000000000000000                    0                    0      
010101   00589940929CPES003 INATIVAR CONTA                                005899409000029      00000000000000000                    0                    0      
                                                                                                                                                                
CONTAS A SEREM INATIVADAS        12/05/2014        11:01:29        - 4 -                                                                                        
                                                                                                                                                                
LOCATION CONTA CACS         CUSTOMER NAME                                 SOCIAL SEC           PHONE                     TOTAL-DELINQ             INTEREST      
-------- ------------------ --------------------------------------------- -------------------- ----------------- -------------------- --------------------      
010101   00596933126CPES003 INATIVAR CONTA                                005969331000026      00000000000000000                    0                    0      
010101   00599648554DCCO001 INATIVAR CONTA                                005996485000054      00000000000000000                    0                    0      
010101   00605273669CPES002 INATIVAR CONTA                                006052736000069      00000000000000000                    0                    0      
010101   00618470387CPES006 INATIVAR CONTA                                006184703000087      00000000000000000                    0                    0      
010101   00623333309CPES001 INATIVAR CONTA                                006233333000009      00000000000000000                    0                    0      
010101   00632527242CPES001 INATIVAR CONTA                                006325272000042      00000000000000000                    0                    0      
010101   00634101250CPES003 INATIVAR CONTA                                006341012000050      00000000000000000                    0                    0      
010101   00636666859CPES001 INATIVAR CONTA                                006366668000059      00000000000000000                    0                    0      
010101   00639217745RENG001 INATIVAR CONTA                                006392177000045      00000000000000000                    0                    0      
010101   00647145510CHEP001 INATIVAR CONTA                                006471455000010      00000000000000000                    0                    0      
010101   00652922945CDCV001 INATIVAR CONTA                                006529229000045      00000000000000000                    0                    0      
010101   00653304129CDCV001 INATIVAR CONTA                                006533041000029      00000000000000000                    0                    0      
010101   00656990090RENG001 INATIVAR CONTA                                006569900000090      00000000000000000                    0                    0      
010101   00658599798CPES001 INATIVAR CONTA                                006585997000098      00000000000000000                    0                    0      
010101   00667577386CPES004 INATIVAR CONTA                                006675773000086      00000000000000000                    0                    0      
010101   00668973862RENG001 INATIVAR CONTA                                006689738000062      00000000000000000                    0                    0      
010101   00682955299CPES004 INATIVAR CONTA                                006829552000099      00000000000000000                    0                    0      
010101   00683896202CPES001 INATIVAR CONTA                                006838962000002      00000000000000000                    0                    0      
010101   00689856903RENG001 INATIVAR CONTA                                006898569000003      00000000000000000                    0                    0      
010101   00693542861CPES007 INATIVAR CONTA                                006935428000061      00000000000000000                    0                    0      
010101   00693542861CPES008 INATIVAR CONTA                                006935428000061      00000000000000000                    0                    0      
010101   00693542861CPES009 INATIVAR CONTA                                006935428000061      00000000000000000                    0                    0      
010101   00693542861CPES010 INATIVAR CONTA                                006935428000061      00000000000000000                    0                    0      
010101   00693542861CPES011 INATIVAR CONTA                                006935428000061      00000000000000000                    0                    0      
010101   00696599589CPES001 INATIVAR CONTA                                006965995000089      00000000000000000                    0                    0      
010101   00713405996RENG003 INATIVAR CONTA                                007134059000096      00000000000000000                    0                    0      
010101   00716126028CPES001 INATIVAR CONTA                                007161260000028      00000000000000000                    0                    0      
010101   00716143208CPES001 INATIVAR CONTA                                007161432000008      00000000000000000                    0                    0      
010101   00716169770CPES004 INATIVAR CONTA                                007161697000070      00000000000000000                    0                    0      
010101   00717885658CPES002 INATIVAR CONTA                                007178856000058      00000000000000000                    0                    0      
010101   00721538576CPES006 INATIVAR CONTA                                007215385000076      00000000000000000                    0                    0      
010101   00721631860CPES008 INATIVAR CONTA                                007216318000060      00000000000000000                    0                    0      
010101   00726934364CPES001 INATIVAR CONTA                                007269343000064      00000000000000000                    0                    0      
010101   00727086898CPES004 INATIVAR CONTA                                999999999999999      00000000000000000                    0                    0      
010101   00727086898CPES005 INATIVAR CONTA                                999999999999999      00000000000000000                    0                    0      
010101   00727086898CPES006 INATIVAR CONTA                                999999999999999      00000000000000000                    0                    0      
010101   00732417848CPES002 INATIVAR CONTA                                007324178000048      00000000000000000                    0                    0      
010101   00732417848CPES003 INATIVAR CONTA                                007324178000048      00000000000000000                    0                    0      
010101   00732417848CPES005 INATIVAR CONTA                                007324178000048      00000000000000000                    0                    0      
010101   00732417848CPES006 INATIVAR CONTA                                007324178000048      00000000000000000                    0                    0      
010101   00734655347CPES001 INATIVAR CONTA                                007346553000047      00000000000000000                    0                    0      
010101   00734998201CPES003 INATIVAR CONTA                                007349982000001      00000000000000000                    0                    0      
010101   00735520038RENG001 INATIVAR CONTA                                007355200000038      00000000000000000                    0                    0      
010101   00737768908CPES001 INATIVAR CONTA                                007377689000008      00000000000000000                    0                    0      
010101   00738291374CPES001 INATIVAR CONTA                                007382913000074      00000000000000000                    0                    0      
010101   00745942571CPES029 INATIVAR CONTA                                007459425000071      00000000000000000                    0                    0      
010101   00745942571CPES030 INATIVAR CONTA                                007459425000071      00000000000000000                    0                    0      
010101   00746331711CPES010 INATIVAR CONTA                                007463317000011      00000000000000000                    0                    0      
010101   00746904509CPES001 INATIVAR CONTA                                007469045000009      00000000000000000                    0                    0      
010101   00747711089RENG002 INATIVAR CONTA                                007477110000089      00000000000000000                    0                    0      
010101   00759344264RENG001 INATIVAR CONTA                                007593442000064      00000000000000000                    0                    0      
010101   00762972173CPES004 INATIVAR CONTA                                007629721000073      00000000000000000                    0                    0      
010101   00764830538CPES001 INATIVAR CONTA                                007648305000038      00000000000000000                    0                    0      
010101   00765974584CDCV001 INATIVAR CONTA                                007659745000084      00000000000000000                    0                    0      
                                                                                                                                                                
CONTAS A SEREM INATIVADAS        12/05/2014        11:01:29        - 5 -                                                                                        
                                                                                                                                                                
LOCATION CONTA CACS         CUSTOMER NAME                                 SOCIAL SEC           PHONE                     TOTAL-DELINQ             INTEREST      
-------- ------------------ --------------------------------------------- -------------------- ----------------- -------------------- --------------------      
010101   00767578546CPES001 INATIVAR CONTA                                007675785000046      00000000000000000                    0                    0      
010101   00768265380CPES001 INATIVAR CONTA                                007682653000080      00000000000000000                    0                    0      
010101   00771584237RENG002 INATIVAR CONTA                                007715842000037      00000000000000000                    0                    0      
010101   00781161800RENG001 INATIVAR CONTA                                007811618000000      00000000000000000                    0                    0      
010101   00792171330CPES001 INATIVAR CONTA                                007921713000030      00000000000000000                    0                    0      
010101   00794715109CPES001 INATIVAR CONTA                                007947151000009      00000000000000000                    0                    0      
010101   00797492593CPES005 INATIVAR CONTA                                007974925000093      00000000000000000                    0                    0      
010101   00798995955RENG001 INATIVAR CONTA                                007989959000055      00000000000000000                    0                    0      
010101   00799914673CPES024 INATIVAR CONTA                                007999146000073      00000000000000000                    0                    0      
010101   00802576311CPES002 INATIVAR CONTA                                008025763000011      00000000000000000                    0                    0      
010101   00803640200CPES002 INATIVAR CONTA                                008036402000000      00000000000000000                    0                    0      
010101   00812654927CPES001 INATIVAR CONTA                                008126549000027      00000000000000000                    0                    0      
010101   00818047330RENG005 INATIVAR CONTA                                008180473000030      00000000000000000                    0                    0      
010101   00820500402CPES004 INATIVAR CONTA                                008205004000002      00000000000000000                    0                    0      
010101   00825769477CPES002 INATIVAR CONTA                                008257694000077      00000000000000000                    0                    0      
010101   00825871247RENG002 INATIVAR CONTA                                008258712000047      00000000000000000                    0                    0      
010101   00833467328CPES001 INATIVAR CONTA                                008334673000028      00000000000000000                    0                    0      
010101   00840636024DBAU001 INATIVAR CONTA                                008406360000024      00000000000000000                    0                    0      
010101   00841868794CPES001 INATIVAR CONTA                                999999999999999      00000000000000000                    0                    0      
010101   00844232424CPES002 INATIVAR CONTA                                008442324000024      00000000000000000                    0                    0      
010101   00848737288CPES013 INATIVAR CONTA                                008487372000088      00000000000000000                    0                    0      
010101   00850921341CPES008 INATIVAR CONTA                                008509213000041      00000000000000000                    0                    0      
010101   00852948026DCCO001 INATIVAR CONTA                                008529480000026      00000000000000000                    0                    0      
010101   00860576345CPES002 INATIVAR CONTA                                008605763000045      00000000000000000                    0                    0      
010101   00864654308CPES005 INATIVAR CONTA                                008646543000008      00000000000000000                    0                    0      
010101   00867029129CDCV001 INATIVAR CONTA                                008670291000029      00000000000000000                    0                    0      
010101   00867238470CPES007 INATIVAR CONTA                                008672384000070      00000000000000000                    0                    0      
010101   00867409118CPES002 INATIVAR CONTA                                008674091000018      00000000000000000                    0                    0      
010101   00869689479CPES002 INATIVAR CONTA                                008696894000079      00000000000000000                    0                    0      
010101   00871493462CPES001 INATIVAR CONTA                                008714934000062      00000000000000000                    0                    0      
010101   00872893189CPES008 INATIVAR CONTA                                008728931000089      00000000000000000                    0                    0      
010101   00873825713CHEP001 INATIVAR CONTA                                999999999999999      00000000000000000                    0                    0      
010101   00876043538DCCO001 INATIVAR CONTA                                999999999999999      00000000000000000                    0                    0      
010101   00876590504CPES002 INATIVAR CONTA                                008765905000004      00000000000000000                    0                    0      
010101   00881221074RENG001 INATIVAR CONTA                                008812210000074      00000000000000000                    0                    0      
010101   00885399625RENG001 INATIVAR CONTA                                008853996000025      00000000000000000                    0                    0      
010101   00889026092RENG012 INATIVAR CONTA                                008890260000092      00000000000000000                    0                    0      
010101   00898706548CPES017 INATIVAR CONTA                                008987065000048      00000000000000000                    0                    0      
010101   00902768921CPES004 INATIVAR CONTA                                009027689000021      00000000000000000                    0                    0      
010101   00904126056CDCV001 INATIVAR CONTA                                009041260000056      00000000000000000                    0                    0      
010101   00904147568CPES001 INATIVAR CONTA                                009041475000068      00000000000000000                    0                    0      
010101   00907640567CPES016 INATIVAR CONTA                                009076405000067      00000000000000000                    0                    0      
010101   00918491100CPES001 INATIVAR CONTA                                009184911000000      00000000000000000                    0                    0      
010101   00927043017CPES001 INATIVAR CONTA                                009270430000017      00000000000000000                    0                    0      
010101   00940647176CPES009 INATIVAR CONTA                                009406471000076      00000000000000000                    0                    0      
010101   00946762163RENG001 INATIVAR CONTA                                009467621000063      00000000000000000                    0                    0      
010101   00946789797CPES001 INATIVAR CONTA                                009467897000097      00000000000000000                    0                    0      
010101   00953360440CPES004 INATIVAR CONTA                                009533604000040      00000000000000000                    0                    0      
010101   00954478495RENG001 INATIVAR CONTA                                009544784000095      00000000000000000                    0                    0      
010101   00961927399CPES002 INATIVAR CONTA                                009619273000099      00000000000000000                    0                    0      
010101   00963455940DBAU001 INATIVAR CONTA                                009634559000040      00000000000000000                    0                    0      
010101   00965640590RENG001 INATIVAR CONTA                                009656405000090      00000000000000000                    0                    0      
010101   00969687702DCCO001 INATIVAR CONTA                                009696877000002      00000000000000000                    0                    0      
010101   00970250207CPES001 INATIVAR CONTA                                009702502000007      00000000000000000                    0                    0      
                                                                                                                                                                
CONTAS A SEREM INATIVADAS        12/05/2014        11:01:29        - 6 -                                                                                        
                                                                                                                                                                
LOCATION CONTA CACS         CUSTOMER NAME                                 SOCIAL SEC           PHONE                     TOTAL-DELINQ             INTEREST      
-------- ------------------ --------------------------------------------- -------------------- ----------------- -------------------- --------------------      
010101   00970686595CPES001 INATIVAR CONTA                                009706865000095      00000000000000000                    0                    0      
010101   00970896565RENG001 INATIVAR CONTA                                009708965000065      00000000000000000                    0                    0      
010101   00975148532CPES001 INATIVAR CONTA                                009751485000032      00000000000000000                    0                    0      
010101   00979097347RENG003 INATIVAR CONTA                                009790973000047      00000000000000000                    0                    0      
010101   00980699266CPES004 INATIVAR CONTA                                009806992000066      00000000000000000                    0                    0      
010101   00980699266CPES005 INATIVAR CONTA                                009806992000066      00000000000000000                    0                    0      
010101   00981439489CPES001 INATIVAR CONTA                                009814394000089      00000000000000000                    0                    0      
010101   00991087208RENG004 INATIVAR CONTA                                009910872000008      00000000000000000                    0                    0      
010101   00993776833CPES002 INATIVAR CONTA                                009937768000033      00000000000000000                    0                    0      
010101   00996241418CPES002 INATIVAR CONTA                                009962414000018      00000000000000000                    0                    0      
010101   01005500371CPES001 INATIVAR CONTA                                010055003000071      00000000000000000                    0                    0      
010101   01007380365CPES001 INATIVAR CONTA                                010073803000065      00000000000000000                    0                    0      
010101   01011972417RENG001 INATIVAR CONTA                                010119724000017      00000000000000000                    0                    0      
010101   01012716031CPES001 INATIVAR CONTA                                010127160000031      00000000000000000                    0                    0      
010101   01018227741CHEP001 INATIVAR CONTA                                999999999999999      00000000000000000                    0                    0      
010101   01019360445CHEP001 INATIVAR CONTA                                999999999999999      00000000000000000                    0                    0      
010101   01019661135RENG001 INATIVAR CONTA                                010196611000035      00000000000000000                    0                    0      
010101   01022033506CPES004 INATIVAR CONTA                                010220335000006      00000000000000000                    0                    0      
010101   01023715635CPES001 INATIVAR CONTA                                010237156000035      00000000000000000                    0                    0      
010101   01031480277CPES014 INATIVAR CONTA                                010314802000077      00000000000000000                    0                    0      
010101   01034693620RENG001 INATIVAR CONTA                                010346936000020      00000000000000000                    0                    0      
010101   01035989360CPES002 INATIVAR CONTA                                010359893000060      00000000000000000                    0                    0      
010101   01037169395RENG005 INATIVAR CONTA                                999999999999999      00000000000000000                    0                    0      
010101   01037491521CPES016 INATIVAR CONTA                                010374915000021      00000000000000000                    0                    0      
010101   01041784341CPES001 INATIVAR CONTA                                010417843000041      00000000000000000                    0                    0      
010101   01042057257CPES001 INATIVAR CONTA                                010420572000057      00000000000000000                    0                    0      
010101   01044134259CPES003 INATIVAR CONTA                                010441342000059      00000000000000000                    0                    0      
010101   01046477013CPES001 INATIVAR CONTA                                010464770000013      00000000000000000                    0                    0      
010101   01055506551CPES002 INATIVAR CONTA                                010555065000051      00000000000000000                    0                    0      
010101   01055807080CDCV001 INATIVAR CONTA                                010558070000080      00000000000000000                    0                    0      
010101   01059132516CPES009 INATIVAR CONTA                                010591325000016      00000000000000000                    0                    0      
010101   01076852564CPES001 INATIVAR CONTA                                010768525000064      00000000000000000                    0                    0      
010101   01078110573CPES001 INATIVAR CONTA                                010781105000073      00000000000000000                    0                    0      
010101   01078655480CPES011 INATIVAR CONTA                                010786554000080      00000000000000000                    0                    0      
010101   01079929304RENG001 INATIVAR CONTA                                010799293000004      00000000000000000                    0                    0      
010101   01081891394CPES001 INATIVAR CONTA                                010818913000094      00000000000000000                    0                    0      
010101   01084250373CPES002 INATIVAR CONTA                                010842503000073      00000000000000000                    0                    0      
010101   01095656147CPES026 INATIVAR CONTA                                010956561000047      00000000000000000                    0                    0      
010101   01095729128CPES002 INATIVAR CONTA                                010957291000028      00000000000000000                    0                    0      
010101   01095895133CPES001 INATIVAR CONTA                                010958951000033      00000000000000000                    0                    0      
010101   01100776877RENG002 INATIVAR CONTA                                011007768000077      00000000000000000                    0                    0      
010101   01103515179CDCM001 INATIVAR CONTA                                011035151000079      00000000000000000                    0                    0      
010101   01103996339CPES003 INATIVAR CONTA                                011039963000039      00000000000000000                    0                    0      
010101   01111282340CPES012 INATIVAR CONTA                                011112823000040      00000000000000000                    0                    0      
010101   01115947230RENG001 INATIVAR CONTA                                011159472000030      00000000000000000                    0                    0      
010101   01116604833CPES002 INATIVAR CONTA                                011166048000033      00000000000000000                    0                    0      
010101   01117699811DCCO001 INATIVAR CONTA                                011176998000011      00000000000000000                    0                    0      
010101   01117717739CPES001 INATIVAR CONTA                                011177177000039      00000000000000000                    0                    0      
010101   01117924602CPES001 INATIVAR CONTA                                011179246000002      00000000000000000                    0                    0      
010101   01120187427CPES001 INATIVAR CONTA                                011201874000027      00000000000000000                    0                    0      
010101   01122496800RENG001 INATIVAR CONTA                                011224968000000      00000000000000000                    0                    0      
010101   01122667469CPES001 INATIVAR CONTA                                011226674000069      00000000000000000                    0                    0      
010101   01134864051CPES005 INATIVAR CONTA                                011348640000051      00000000000000000                    0                    0      
010101   01138370541CPES002 INATIVAR CONTA                                011383705000041      00000000000000000                    0                    0      
                                                                                                                                                                
CONTAS A SEREM INATIVADAS        12/05/2014        11:01:29        - 7 -                                                                                        
                                                                                                                                                                
LOCATION CONTA CACS         CUSTOMER NAME                                 SOCIAL SEC           PHONE                     TOTAL-DELINQ             INTEREST      
-------- ------------------ --------------------------------------------- -------------------- ----------------- -------------------- --------------------      
010101   01139641450RENG008 INATIVAR CONTA                                011396414000050      00000000000000000                    0                    0      
010101   01141773333CPES005 INATIVAR CONTA                                011417733000033      00000000000000000                    0                    0      
010101   01141955288RENG001 INATIVAR CONTA                                011419552000088      00000000000000000                    0                    0      
010101   01145131557RENG001 INATIVAR CONTA                                011451315000057      00000000000000000                    0                    0      
010101   01145451896CPES001 INATIVAR CONTA                                011454518000096      00000000000000000                    0                    0      
010101   01149808292CPES002 INATIVAR CONTA                                011498082000092      00000000000000000                    0                    0      
010101   01153006359CPES011 INATIVAR CONTA                                011530063000059      00000000000000000                    0                    0      
010101   01153006359CPES013 INATIVAR CONTA                                011530063000059      00000000000000000                    0                    0      
010101   01153006359CPES014 INATIVAR CONTA                                011530063000059      00000000000000000                    0                    0      
010101   01153006359CPES016 INATIVAR CONTA                                011530063000059      00000000000000000                    0                    0      
010101   01153006359CPES019 INATIVAR CONTA                                011530063000059      00000000000000000                    0                    0      
010101   01154390306DCCO001 INATIVAR CONTA                                011543903000006      00000000000000000                    0                    0      
010101   01164475401CPES003 INATIVAR CONTA                                011644754000001      00000000000000000                    0                    0      
010101   01177606330CPES005 INATIVAR CONTA                                011776063000030      00000000000000000                    0                    0      
010101   01181663601CPES001 INATIVAR CONTA                                011816636000001      00000000000000000                    0                    0      
010101   01182612237CPES001 INATIVAR CONTA                                011826122000037      00000000000000000                    0                    0      
010101   01184303517CPES001 INATIVAR CONTA                                011843035000017      00000000000000000                    0                    0      
010101   01195318448RENG008 INATIVAR CONTA                                011953184000048      00000000000000000                    0                    0      
010101   01199112135CPES005 INATIVAR CONTA                                011991121000035      00000000000000000                    0                    0      
010101   01204202281CPES001 INATIVAR CONTA                                012042022000081      00000000000000000                    0                    0      
010101   01204354464CPES001 INATIVAR CONTA                                012043544000064      00000000000000000                    0                    0      
010101   01206169397CPES001 INATIVAR CONTA                                012061693000097      00000000000000000                    0                    0      
010101   01207794120DCCO001 INATIVAR CONTA                                012077941000020      00000000000000000                    0                    0      
010101   01214914128CPES001 INATIVAR CONTA                                012149141000028      00000000000000000                    0                    0      
010101   01215617470CPES003 INATIVAR CONTA                                012156174000070      00000000000000000                    0                    0      
010101   01218690674CPES001 INATIVAR CONTA                                012186906000074      00000000000000000                    0                    0      
010101   01219351164CPES001 INATIVAR CONTA                                012193511000064      00000000000000000                    0                    0      
010101   01226715206CPES001 INATIVAR CONTA                                012267152000006      00000000000000000                    0                    0      
010101   01230066276CPES001 INATIVAR CONTA                                012300662000076      00000000000000000                    0                    0      
010101   01231129743CPES001 INATIVAR CONTA                                012311297000043      00000000000000000                    0                    0      
010101   01231204621CPES001 INATIVAR CONTA                                012312046000021      00000000000000000                    0                    0      
010101   01236251300CPES002 INATIVAR CONTA                                012362513000000      00000000000000000                    0                    0      
010101   01242368809RENG001 INATIVAR CONTA                                012423688000009      00000000000000000                    0                    0      
010101   01243501359CPES001 INATIVAR CONTA                                012435013000059      00000000000000000                    0                    0      
010101   01247881300CPES001 INATIVAR CONTA                                012478813000000      00000000000000000                    0                    0      
010101   01256055522CPES001 INATIVAR CONTA                                012560555000022      00000000000000000                    0                    0      
010101   01256761311CPES001 INATIVAR CONTA                                012567613000011      00000000000000000                    0                    0      
010101   01259190501CPES001 INATIVAR CONTA                                012591905000001      00000000000000000                    0                    0      
010101   01264774427CPES004 INATIVAR CONTA                                012647744000027      00000000000000000                    0                    0      
010101   01273354478RENG001 INATIVAR CONTA                                012733544000078      00000000000000000                    0                    0      
010101   01273608321CPES005 INATIVAR CONTA                                012736083000021      00000000000000000                    0                    0      
010101   01277333882CPES002 INATIVAR CONTA                                012773338000082      00000000000000000                    0                    0      
010101   01281594482CPES001 INATIVAR CONTA                                012815944000082      00000000000000000                    0                    0      
010101   01281607215DCCO001 INATIVAR CONTA                                012816072000015      00000000000000000                    0                    0      
010101   01286452708RENG005 INATIVAR CONTA                                012864527000008      00000000000000000                    0                    0      
010101   01288876564CPES001 INATIVAR CONTA                                012888765000064      00000000000000000                    0                    0      
010101   01291558535CPES007 INATIVAR CONTA                                012915585000035      00000000000000000                    0                    0      
010101   01298943701RENG001 INATIVAR CONTA                                012989437000001      00000000000000000                    0                    0      
010101   01300183330CPES004 INATIVAR CONTA                                013001833000030      00000000000000000                    0                    0      
010101   01301478423CPES001 INATIVAR CONTA                                013014784000023      00000000000000000                    0                    0      
010101   01301803359CPES001 INATIVAR CONTA                                013018033000059      00000000000000000                    0                    0      
010101   01302156608CHEP001 INATIVAR CONTA                                013021566000008      00000000000000000                    0                    0      
010101   01302333313CPES001 INATIVAR CONTA                                013023333000013      00000000000000000                    0                    0      
010101   01303615770CPES012 INATIVAR CONTA                                013036157000070      00000000000000000                    0                    0      
                                                                                                                                                                
CONTAS A SEREM INATIVADAS        12/05/2014        11:01:29        - 8 -                                                                                        
                                                                                                                                                                
LOCATION CONTA CACS         CUSTOMER NAME                                 SOCIAL SEC           PHONE                     TOTAL-DELINQ             INTEREST      
-------- ------------------ --------------------------------------------- -------------------- ----------------- -------------------- --------------------      
010101   01304076580DCCO001 INATIVAR CONTA                                013040765000080      00000000000000000                    0                    0      
010101   01307927564CPES001 INATIVAR CONTA                                013079275000064      00000000000000000                    0                    0      
010101   01316543730CPES001 INATIVAR CONTA                                013165437000030      00000000000000000                    0                    0      
010101   01318712343RENG001 INATIVAR CONTA                                013187123000043      00000000000000000                    0                    0      
010101   01319958397CPES001 INATIVAR CONTA                                013199583000097      00000000000000000                    0                    0      
010101   01321809280RENG002 INATIVAR CONTA                                013218092000080      00000000000000000                    0                    0      
010101   01322120056RENG002 INATIVAR CONTA                                013221200000056      00000000000000000                    0                    0      
010101   01325958506RENG004 INATIVAR CONTA                                013259585000006      00000000000000000                    0                    0      
010101   01340046393CPES001 INATIVAR CONTA                                013400463000093      00000000000000000                    0                    0      
010101   01340912562CPES013 INATIVAR CONTA                                013409125000062      00000000000000000                    0                    0      
010101   01341702456RENG001 INATIVAR CONTA                                013417024000056      00000000000000000                    0                    0      
010101   01341702456RENG002 INATIVAR CONTA                                013417024000056      00000000000000000                    0                    0      
010101   01342653190CPES002 INATIVAR CONTA                                013426531000090      00000000000000000                    0                    0      
010101   01343698820CPES003 INATIVAR CONTA                                013436988000020      00000000000000000                    0                    0      
010101   01347270450CPES001 INATIVAR CONTA                                013472704000050      00000000000000000                    0                    0      
010101   01347810072CPES001 INATIVAR CONTA                                013478100000072      00000000000000000                    0                    0      
010101   01348347805CPES003 INATIVAR CONTA                                013483478000005      00000000000000000                    0                    0      
010101   01353339890RENG001 INATIVAR CONTA                                013533398000090      00000000000000000                    0                    0      
010101   01353654141CPES001 INATIVAR CONTA                                013536541000041      00000000000000000                    0                    0      
010101   01354852311CPES009 INATIVAR CONTA                                013548523000011      00000000000000000                    0                    0      
010101   01358215170CPES003 INATIVAR CONTA                                013582151000070      00000000000000000                    0                    0      
010101   01359560726CPES001 INATIVAR CONTA                                013595607000026      00000000000000000                    0                    0      
010101   01359560726CPES002 INATIVAR CONTA                                013595607000026      00000000000000000                    0                    0      
010101   01361435550CPES001 INATIVAR CONTA                                013614355000050      00000000000000000                    0                    0      
010101   01368887392CPES002 INATIVAR CONTA                                013688873000092      00000000000000000                    0                    0      
010101   01387706381CPES001 INATIVAR CONTA                                013877063000081      00000000000000000                    0                    0      
010101   01390280640CPES002 INATIVAR CONTA                                013902806000040      00000000000000000                    0                    0      
010101   01391247809DCCO001 INATIVAR CONTA                                013912478000009      00000000000000000                    0                    0      
010101   01391761448CPES001 INATIVAR CONTA                                013917614000048      00000000000000000                    0                    0      
010101   01393259723RENG001 INATIVAR CONTA                                013932597000023      00000000000000000                    0                    0      
010101   01400269407CPES002 INATIVAR CONTA                                014002694000007      00000000000000000                    0                    0      
010101   01401106900CPES001 INATIVAR CONTA                                014011069000000      00000000000000000                    0                    0      
010101   01403252475CPES003 INATIVAR CONTA                                014032524000075      00000000000000000                    0                    0      
010101   01404405429CPES004 INATIVAR CONTA                                014044054000029      00000000000000000                    0                    0      
010101   01404405429CPES005 INATIVAR CONTA                                014044054000029      00000000000000000                    0                    0      
010101   01404405429CPES008 INATIVAR CONTA                                014044054000029      00000000000000000                    0                    0      
010101   01404405429CPES011 INATIVAR CONTA                                014044054000029      00000000000000000                    0                    0      
010101   01404554181RENG001 INATIVAR CONTA                                014045541000081      00000000000000000                    0                    0      
010101   01407415425CPES001 INATIVAR CONTA                                014074154000025      00000000000000000                    0                    0      
010101   01411480392CPES021 INATIVAR CONTA                                014114803000092      00000000000000000                    0                    0      
010101   01418375438CPES001 INATIVAR CONTA                                014183754000038      00000000000000000                    0                    0      
010101   01418390666RENG001 INATIVAR CONTA                                999999999999999      00000000000000000                    0                    0      
010101   01420030850CPES005 INATIVAR CONTA                                014200308000050      00000000000000000                    0                    0      
010101   01427577307CPES006 INATIVAR CONTA                                014275773000007      00000000000000000                    0                    0      
010101   01429327448CPES001 INATIVAR CONTA                                014293274000048      00000000000000000                    0                    0      
010101   01430526084RENG001 INATIVAR CONTA                                999999999999999      00000000000000000                    0                    0      
010101   01442984490RENG005 INATIVAR CONTA                                014429844000090      00000000000000000                    0                    0      
010101   01447003365CPES009 INATIVAR CONTA                                014470033000065      00000000000000000                    0                    0      
010101   01451395655CPES001 INATIVAR CONTA                                014513956000055      00000000000000000                    0                    0      
010101   01453228748CPES007 INATIVAR CONTA                                014532287000048      00000000000000000                    0                    0      
010101   01454335602CPES004 INATIVAR CONTA                                014543356000002      00000000000000000                    0                    0      
010101   01454421878CPES008 INATIVAR CONTA                                014544218000078      00000000000000000                    0                    0      
010101   01454421878CPES010 INATIVAR CONTA                                014544218000078      00000000000000000                    0                    0      
010101   01458496783DCCO001 INATIVAR CONTA                                014584967000083      00000000000000000                    0                    0      
                                                                                                                                                                
CONTAS A SEREM INATIVADAS        12/05/2014        11:01:29        - 9 -                                                                                        
                                                                                                                                                                
LOCATION CONTA CACS         CUSTOMER NAME                                 SOCIAL SEC           PHONE                     TOTAL-DELINQ             INTEREST      
-------- ------------------ --------------------------------------------- -------------------- ----------------- -------------------- --------------------      
010101   01458774503RENG001 INATIVAR CONTA                                014587745000003      00000000000000000                    0                    0      
010101   01460547179CPES001 INATIVAR CONTA                                014605471000079      00000000000000000                    0                    0      
010101   01469768780RENG001 INATIVAR CONTA                                014697687000080      00000000000000000                    0                    0      
010101   01472045262CPES002 INATIVAR CONTA                                014720452000062      00000000000000000                    0                    0      
010101   01473785839RENG001 INATIVAR CONTA                                014737858000039      00000000000000000                    0                    0      
010101   01476209707CPES008 INATIVAR CONTA                                014762097000007      00000000000000000                    0                    0      
010101   01479919195CDCV001 INATIVAR CONTA                                014799191000095      00000000000000000                    0                    0      
010101   01481288580CPES002 INATIVAR CONTA                                014812885000080      00000000000000000                    0                    0      
010101   01481470540CPES005 INATIVAR CONTA                                014814705000040      00000000000000000                    0                    0      
010101   01481470540CPES006 INATIVAR CONTA                                014814705000040      00000000000000000                    0                    0      
010101   01481470540CPES007 INATIVAR CONTA                                014814705000040      00000000000000000                    0                    0      
010101   01481470540CPES008 INATIVAR CONTA                                014814705000040      00000000000000000                    0                    0      
010101   01487404484CPES001 INATIVAR CONTA                                014874044000084      00000000000000000                    0                    0      
010101   01491340533CPES002 INATIVAR CONTA                                014913405000033      00000000000000000                    0                    0      
010101   01496028473CPES003 INATIVAR CONTA                                014960284000073      00000000000000000                    0                    0      
010101   01499471009RENG001 INATIVAR CONTA                                014994710000009      00000000000000000                    0                    0      
010101   01503249360CPES001 INATIVAR CONTA                                015032493000060      00000000000000000                    0                    0      
010101   01504128192RENG001 INATIVAR CONTA                                015041281000092      00000000000000000                    0                    0      
010101   01511221216CPES005 INATIVAR CONTA                                015112212000016      00000000000000000                    0                    0      
010101   01514323095DBAU001 INATIVAR CONTA                                015143230000095      00000000000000000                    0                    0      
010101   01518851177CPES001 INATIVAR CONTA                                015188511000077      00000000000000000                    0                    0      
010101   01529598150CPES006 INATIVAR CONTA                                015295981000050      00000000000000000                    0                    0      
010101   01529658667CPES001 INATIVAR CONTA                                015296586000067      00000000000000000                    0                    0      
010101   01531347630CHEP001 INATIVAR CONTA                                015313476000030      00000000000000000                    0                    0      
010101   01531991211CPES001 INATIVAR CONTA                                015319912000011      00000000000000000                    0                    0      
010101   01534747265CPES001 INATIVAR CONTA                                015347472000065      00000000000000000                    0                    0      
010101   01538719622CPES001 INATIVAR CONTA                                015387196000022      00000000000000000                    0                    0      
010101   01538719622CPES002 INATIVAR CONTA                                015387196000022      00000000000000000                    0                    0      
010101   01541682548CHEP001 INATIVAR CONTA                                015416825000048      00000000000000000                    0                    0      
010101   01544516819CPES011 INATIVAR CONTA                                015445168000019      00000000000000000                    0                    0      
010101   01545809968CPES001 INATIVAR CONTA                                015458099000068      00000000000000000                    0                    0      
010101   01546039538CHEP001 INATIVAR CONTA                                015460395000038      00000000000000000                    0                    0      
010101   01546629505RENG001 INATIVAR CONTA                                015466295000005      00000000000000000                    0                    0      
010101   01551066785CDCV001 INATIVAR CONTA                                015510667000085      00000000000000000                    0                    0      
010101   01552875083CPES001 INATIVAR CONTA                                015528750000083      00000000000000000                    0                    0      
010101   01555543952DCCO001 INATIVAR CONTA                                015555439000052      00000000000000000                    0                    0      
010101   01557273626CPES006 INATIVAR CONTA                                015572736000026      00000000000000000                    0                    0      
010101   01560917636CPES002 INATIVAR CONTA                                015609176000036      00000000000000000                    0                    0      
010101   01572073314CPES002 INATIVAR CONTA                                015720733000014      00000000000000000                    0                    0      
010101   01575472309RENG001 INATIVAR CONTA                                015754723000009      00000000000000000                    0                    0      
010101   01590318188CPES003 INATIVAR CONTA                                015903181000088      00000000000000000                    0                    0      
010101   01591586135CPES001 INATIVAR CONTA                                015915861000035      00000000000000000                    0                    0      
010101   01593683758CPES004 INATIVAR CONTA                                015936837000058      00000000000000000                    0                    0      
010101   01598466330CPES002 INATIVAR CONTA                                015984663000030      00000000000000000                    0                    0      
010101   01600985998CPES001 INATIVAR CONTA                                016009859000098      00000000000000000                    0                    0      
010101   01613246307CPES001 INATIVAR CONTA                                016132463000007      00000000000000000                    0                    0      
010101   01616519339CPES001 INATIVAR CONTA                                016165193000039      00000000000000000                    0                    0      
010101   01618252658CPES001 INATIVAR CONTA                                016182526000058      00000000000000000                    0                    0      
010101   01618252658CPES004 INATIVAR CONTA                                016182526000058      00000000000000000                    0                    0      
010101   01619244250RENG001 INATIVAR CONTA                                016192442000050      00000000000000000                    0                    0      
010101   01621013170CPES005 INATIVAR CONTA                                016210131000070      00000000000000000                    0                    0      
010101   01627237330RENG001 INATIVAR CONTA                                016272373000030      00000000000000000                    0                    0      
010101   01627704485CPES002 INATIVAR CONTA                                016277044000085      00000000000000000                    0                    0      
010101   01629857700CPES002 INATIVAR CONTA                                016298577000000      00000000000000000                    0                    0      
                                                                                                                                                                
CONTAS A SEREM INATIVADAS        12/05/2014        11:01:29        - 10 -                                                                                       
                                                                                                                                                                
LOCATION CONTA CACS         CUSTOMER NAME                                 SOCIAL SEC           PHONE                     TOTAL-DELINQ             INTEREST      
-------- ------------------ --------------------------------------------- -------------------- ----------------- -------------------- --------------------      
010101   01639140603CPES001 INATIVAR CONTA                                016391406000003      00000000000000000                    0                    0      
010101   01642865940CPES001 INATIVAR CONTA                                016428659000040      00000000000000000                    0                    0      
010101   01645541223CPES012 INATIVAR CONTA                                016455412000023      00000000000000000                    0                    0      
010101   01648087876CPES003 INATIVAR CONTA                                016480878000076      00000000000000000                    0                    0      
010101   01648281257CPES011 INATIVAR CONTA                                016482812000057      00000000000000000                    0                    0      
010101   01650194250DCCO001 INATIVAR CONTA                                999999999999999      00000000000000000                    0                    0      
010101   01656789922CPES008 INATIVAR CONTA                                016567899000022      00000000000000000                    0                    0      
010101   01668907313RENG004 INATIVAR CONTA                                016689073000013      00000000000000000                    0                    0      
010101   01673104703CPES001 INATIVAR CONTA                                016731047000003      00000000000000000                    0                    0      
010101   01674418256CPES002 INATIVAR CONTA                                016744182000056      00000000000000000                    0                    0      
010101   01687877505CPES004 INATIVAR CONTA                                016878775000005      00000000000000000                    0                    0      
010101   01690296119CPES002 INATIVAR CONTA                                016902961000019      00000000000000000                    0                    0      
010101   01694336417CPES001 INATIVAR CONTA                                016943364000017      00000000000000000                    0                    0      
010101   01695659392CPES001 INATIVAR CONTA                                016956593000092      00000000000000000                    0                    0      
010101   01697598307CPES003 INATIVAR CONTA                                016975983000007      00000000000000000                    0                    0      
010101   01698719167CPES002 INATIVAR CONTA                                016987191000067      00000000000000000                    0                    0      
010101   01699822549RENG001 INATIVAR CONTA                                016998225000049      00000000000000000                    0                    0      
010101   01706622503CPES001 INATIVAR CONTA                                017066225000003      00000000000000000                    0                    0      
010101   01711599778RENG001 INATIVAR CONTA                                017115997000078      00000000000000000                    0                    0      
010101   01713595346CPES002 INATIVAR CONTA                                017135953000046      00000000000000000                    0                    0      
010101   01713641399CPES001 INATIVAR CONTA                                017136413000099      00000000000000000                    0                    0      
010101   01718182619CPES001 INATIVAR CONTA                                017181826000019      00000000000000000                    0                    0      
010101   01718685106CPES001 INATIVAR CONTA                                017186851000006      00000000000000000                    0                    0      
010101   01720337217CPES001 INATIVAR CONTA                                017203372000017      00000000000000000                    0                    0      
010101   01723318116DBAU001 INATIVAR CONTA                                017233181000016      00000000000000000                    0                    0      
010101   01743283890CPES001 INATIVAR CONTA                                017432838000090      00000000000000000                    0                    0      
010101   01747315311RENG005 INATIVAR CONTA                                017473153000011      00000000000000000                    0                    0      
010101   01748521500CPES003 INATIVAR CONTA                                017485215000000      00000000000000000                    0                    0      
010101   01756706506CPES001 INATIVAR CONTA                                017567065000006      00000000000000000                    0                    0      
010101   01757773061RENG002 INATIVAR CONTA                                017577730000061      00000000000000000                    0                    0      
010101   01763007839CPES001 INATIVAR CONTA                                017630078000039      00000000000000000                    0                    0      
010101   01763974774CPES001 INATIVAR CONTA                                017639747000074      00000000000000000                    0                    0      
010101   01764350936DCCO001 INATIVAR CONTA                                017643509000036      00000000000000000                    0                    0      
010101   01767042809CPES009 INATIVAR CONTA                                017670428000009      00000000000000000                    0                    0      
010101   01767042809CPES015 INATIVAR CONTA                                017670428000009      00000000000000000                    0                    0      
010101   01771180161DBAU002 INATIVAR CONTA                                017711801000061      00000000000000000                    0                    0      
010101   01773716174CPES001 INATIVAR CONTA                                017737161000074      00000000000000000                    0                    0      
010101   01775186504RENG006 INATIVAR CONTA                                017751865000004      00000000000000000                    0                    0      
010101   01778099815DCCO001 INATIVAR CONTA                                017780998000015      00000000000000000                    0                    0      
010101   01780390122CPES004 INATIVAR CONTA                                017803901000022      00000000000000000                    0                    0      
010101   01781224919RENG001 INATIVAR CONTA                                017812249000019      00000000000000000                    0                    0      
010101   01781479313CPES001 INATIVAR CONTA                                017814793000013      00000000000000000                    0                    0      
010101   01785398300CPES004 INATIVAR CONTA                                017853983000000      00000000000000000                    0                    0      
010101   01786071347CPES001 INATIVAR CONTA                                017860713000047      00000000000000000                    0                    0      
010101   01786434598RENG009 INATIVAR CONTA                                017864345000098      00000000000000000                    0                    0      
010101   01787113140RENG001 INATIVAR CONTA                                017871131000040      00000000000000000                    0                    0      
010101   01788897501CPES002 INATIVAR CONTA                                017888975000001      00000000000000000                    0                    0      
010101   01788965353CPES008 INATIVAR CONTA                                017889653000053      00000000000000000                    0                    0      
010101   01790509157CPES007 INATIVAR CONTA                                017905091000057      00000000000000000                    0                    0      
010101   01792864809CPES002 INATIVAR CONTA                                017928648000009      00000000000000000                    0                    0      
010101   01793894833CPES001 INATIVAR CONTA                                017938948000033      00000000000000000                    0                    0      
010101   01796007293CPES001 INATIVAR CONTA                                017960072000093      00000000000000000                    0                    0      
010101   01796007293CPES002 INATIVAR CONTA                                017960072000093      00000000000000000                    0                    0      
010101   01796539970CPES003 INATIVAR CONTA                                017965399000070      00000000000000000                    0                    0      
                                                                                                                                                                
CONTAS A SEREM INATIVADAS        12/05/2014        11:01:29        - 11 -                                                                                       
                                                                                                                                                                
LOCATION CONTA CACS         CUSTOMER NAME                                 SOCIAL SEC           PHONE                     TOTAL-DELINQ             INTEREST      
-------- ------------------ --------------------------------------------- -------------------- ----------------- -------------------- --------------------      
010101   01796688380CPES001 INATIVAR CONTA                                017966883000080      00000000000000000                    0                    0      
010101   01796688380CPES002 INATIVAR CONTA                                017966883000080      00000000000000000                    0                    0      
010101   01796959324RENG001 INATIVAR CONTA                                999999999999999      00000000000000000                    0                    0      
010101   01797316702CPES003 INATIVAR CONTA                                017973167000002      00000000000000000                    0                    0      
010101   01801954330CPES001 INATIVAR CONTA                                018019543000030      00000000000000000                    0                    0      
010101   01802522247CPES003 INATIVAR CONTA                                018025222000047      00000000000000000                    0                    0      
010101   01802522247CPES004 INATIVAR CONTA                                018025222000047      00000000000000000                    0                    0      
010101   01806174359CPES006 INATIVAR CONTA                                999999999999999      00000000000000000                    0                    0      
010101   01806315351CPES003 INATIVAR CONTA                                018063153000051      00000000000000000                    0                    0      
010101   01811210007CHEP001 INATIVAR CONTA                                018112100000007      00000000000000000                    0                    0      
010101   01811852378RENG004 INATIVAR CONTA                                018118523000078      00000000000000000                    0                    0      
010101   01814385932CPES002 INATIVAR CONTA                                018143859000032      00000000000000000                    0                    0      
010101   01815133155CPES001 INATIVAR CONTA                                018151331000055      00000000000000000                    0                    0      
010101   01815762870CPES012 INATIVAR CONTA                                018157628000070      00000000000000000                    0                    0      
010101   01824759487CHEP002 INATIVAR CONTA                                018247594000087      00000000000000000                    0                    0      
010101   01826666702CPES002 INATIVAR CONTA                                999999999999999      00000000000000000                    0                    0      
010101   01826666702CPES003 INATIVAR CONTA                                999999999999999      00000000000000000                    0                    0      
010101   01826965378CPES002 INATIVAR CONTA                                018269653000078      00000000000000000                    0                    0      
010101   01828224278DCCO001 INATIVAR CONTA                                999999999999999      00000000000000000                    0                    0      
010101   01830931270CPES004 INATIVAR CONTA                                018309312000070      00000000000000000                    0                    0      
010101   01835303811CPES041 INATIVAR CONTA                                999999999999999      00000000000000000                    0                    0      
010101   01837248362CPES001 INATIVAR CONTA                                018372483000062      00000000000000000                    0                    0      
010101   01839211350CPES002 INATIVAR CONTA                                018392113000050      00000000000000000                    0                    0      
010101   01840996412CPES003 INATIVAR CONTA                                018409964000012      00000000000000000                    0                    0      
010101   01856097404CPES003 INATIVAR CONTA                                018560974000004      00000000000000000                    0                    0      
