                         --- INICIO DO RELATORIO ---                                                     --- INICIO DO RELATORIO ---                                                     --- INICIO DO R
                                                                                                                                                                                                        
CONTAS A SEREM INATIVADAS - CARTEIRA PF        21/05/2014        14:48:09        - 1 -                                                                                                                  
                                                                                                                                                                                                        
LOCATION CONTA CACS         CUSTOMER NAME                                 SOCIAL SEC           CUSTOMER-INFO            PHONE                     TOTAL-DELINQ             INTEREST                     
-------- ------------------ --------------------------------------------- -------------------- ------------------------ ----------------- -------------------- --------------------                     
010101   00000287113CPES003 INATIVAR CONTA2                               999999999999999      999999999999999          00000000000000000                    0                    0                     
010101   00000315184RENG001 INATIVAR CONTA3                               000003151000084      00000315184              00000000000000000                    0                    0                     
010101   00001187104CPES005 INATIVAR CONTA3                               000011871000004      00001187104              00000000000000000                    0                    0                     
010101   00001507389CPES002 INATIVAR CONTA3                               000015073000089      00001507389              00000000000000000                    0                    0                     
010101   00002449293CPES001 INATIVAR CONTA3                               000024492000093      00002449293              00000000000000000                    0                    0                     
010101   00002927616CPES002 INATIVAR CONTA3                               000029276000016      00002927616              00000000000000000                    0                    0                     
010101   00004373600RENG001 INATIVAR CONTA2                               999999999999999      999999999999999          00000000000000000                    0                    0                     
010101   00005856884CDCV001 INATIVAR CONTA3                               000058568000084      00005856884              00000000000000000                    0                    0                     
010101   00005980623CPES007 INATIVAR CONTA2                               999999999999999      999999999999999          00000000000000000                    0                    0                     
010101   00006598196RENG003 INATIVAR CONTA2                               999999999999999      999999999999999          00000000000000000                    0                    0                     
010101   00006999506CPES013 INATIVAR CONTA3                               000069995000006      00006999506              00000000000000000                    0                    0                     
010101   00007783540CPES001 INATIVAR CONTA2                               999999999999999      999999999999999          00000000000000000                    0                    0                     
010101   00008565686CPES003 INATIVAR CONTA3                               999999999999999      999999999999999          00000000000000000                    0                    0                     
010101   00009602844CHEP001 INATIVAR CONTA3                               999999999999999      999999999999999          00000000000000000                    0                    0                     
010101   00009761136CPES001 INATIVAR CONTA2                               999999999999999      999999999999999          00000000000000000                    0                    0                     
010101   00010451307CPES001 INATIVAR CONTA2                               999999999999999      999999999999999          00000000000000000                    0                    0                     
010101   00010648275CPES001 INATIVAR CONTA3                               000106482000075      00010648275              00000000000000000                    0                    0                     
010101   00010785264CPES011 INATIVAR CONTA2                               999999999999999      999999999999999          00000000000000000                    0                    0                     
010101   00010785264CPES012 INATIVAR CONTA2                               999999999999999      999999999999999          00000000000000000                    0                    0                     
010101   00010785264CPES013 INATIVAR CONTA2                               999999999999999      999999999999999          00000000000000000                    0                    0                     
010101   00012731595CPES003 INATIVAR CONTA3                               000127315000095      00012731595              00000000000000000                    0                    0                     
010101   00012808059CPES001 INATIVAR CONTA2                               999999999999999      999999999999999          00000000000000000                    0                    0                     
010101   00013022725CPES003 INATIVAR CONTA3                               000130227000025      00013022725              00000000000000000                    0                    0                     
010101   00013756109RENG001 INATIVAR CONTA2                               999999999999999      999999999999999          00000000000000000                    0                    0                     
010101   00014394723CPES002 INATIVAR CONTA2                               999999999999999      999999999999999          00000000000000000                    0                    0                     
010101   00016990080RENG001 INATIVAR CONTA3                               000169900000080      00016990080              00000000000000000                    0                    0                     
010101   00017083176CPES001 INATIVAR CONTA3                               000170831000076      00017083176              00000000000000000                    0                    0                     
010101   00017237319DBAU001 INATIVAR CONTA3                               000172373000019      00017237319              00000000000000000                    0                    0                     
010101   00017629586CPES001 INATIVAR CONTA2                               999999999999999      999999999999999          00000000000000000                    0                    0                     
010101   00017791766CPES001 INATIVAR CONTA2                               999999999999999      999999999999999          00000000000000000                    0                    0                     
010101   00018029418CPES001 INATIVAR CONTA3                               000180294000018      00018029418              00000000000000000                    0                    0                     
010101   00018969038CHEP001 INATIVAR CONTA3                               000189690000038      00018969038              00000000000000000                    0                    0                     
010101   00019609701CPES006 INATIVAR CONTA3                               000196097000001      00019609701              00000000000000000                    0                    0                     
010101   00019710500CHEP001 INATIVAR CONTA3                               000197105000000      00019710500              00000000000000000                    0                    0                     
010101   00022869395CDCM001 INATIVAR CONTA2                               999999999999999      999999999999999          00000000000000000                    0                    0                     
010101   00022973702DCHQ003 INATIVAR CONTA3                               999999999999999      999999999999999          00000000000000000                    0                    0                     
010101   00023260270CPES001 INATIVAR CONTA2                               999999999999999      999999999999999          00000000000000000                    0                    0                     
010101   00023772689CPES004 INATIVAR CONTA2                               999999999999999      999999999999999          00000000000000000                    0                    0                     
010101   00024155934CPMF001 INATIVAR CONTA3                               999999999999999      999999999999999          00000000000000000                    0                    0                     
010101   00024445347CPES004 INATIVAR CONTA3                               000244453000047      00024445347              00000000000000000                    0                    0                     
010101   00025051261CPES001 INATIVAR CONTA2                               999999999999999      999999999999999          00000000000000000                    0                    0                     
010101   00026090538RENG002 INATIVAR CONTA3                               000260905000038      00026090538              00000000000000000                    0                    0                     
010101   00026215098CPES001 INATIVAR CONTA2                               999999999999999      999999999999999          00000000000000000                    0                    0                     
010101   00026493497RENG001 INATIVAR CONTA2                               999999999999999      999999999999999          00000000000000000                    0                    0                     
010101   00028084128CPES004 INATIVAR CONTA2                               999999999999999      999999999999999          00000000000000000                    0                    0                     
010101   00028772601CPES001 INATIVAR CONTA2                               999999999999999      999999999999999          00000000000000000                    0                    0                     
010101   00029067596CPES002 INATIVAR CONTA2                               999999999999999      999999999999999          00000000000000000                    0                    0                     
010101   00029730651CPES001 INATIVAR CONTA3                               000297306000051      00029730651              00000000000000000                    0                    0                     
010101   00030835607RENG001 INATIVAR CONTA2                               999999999999999      999999999999999          00000000000000000                    0                    0                     
010101   00031820883CHEP001 INATIVAR CONTA2                               999999999999999      999999999999999          00000000000000000                    0                    0                     
010101   00031820883CPES001 INATIVAR CONTA2                               999999999999999      999999999999999          00000000000000000                    0                    0                     
010101   00032214073CDCV006 INATIVAR CONTA3                               000322140000073      00032214073              00000000000000000                    0                    0                     
010101   00032589395CPES001 INATIVAR CONTA2                               999999999999999      999999999999999          00000000000000000                    0                    0                     
010101   00032594399CPES009 INATIVAR CONTA3                               000325943000099      00032594399              00000000000000000                    0                    0                     
                                                                                                                                                                                                        
CONTAS A SEREM INATIVADAS - CARTEIRA PF        21/05/2014        14:48:09        - 2 -                                                                                                                  
                                                                                                                                                                                                        
LOCATION CONTA CACS         CUSTOMER NAME                                 SOCIAL SEC           CUSTOMER-INFO            PHONE                     TOTAL-DELINQ             INTEREST                     
-------- ------------------ --------------------------------------------- -------------------- ------------------------ ----------------- -------------------- --------------------                     
010101   00032716338CPES002 INATIVAR CONTA2                               999999999999999      999999999999999          00000000000000000                    0                    0                     
010101   00033017700CPES037 INATIVAR CONTA2                               999999999999999      999999999999999          00000000000000000                    0                    0                     
010101   00035465190CHEP001 INATIVAR CONTA3                               000354651000090      00035465190              00000000000000000                    0                    0                     
010101   00036988901RENG001 INATIVAR CONTA3                               000369889000001      00036988901              00000000000000000                    0                    0                     
010101   00037440004DCCO001 INATIVAR CONTA3                               999999999999999      999999999999999          00000000000000000                    0                    0                     
010101   00037565567CPES004 INATIVAR CONTA2                               999999999999999      999999999999999          00000000000000000                    0                    0                     
010101   00038118165CPES014 INATIVAR CONTA2                               999999999999999      999999999999999          00000000000000000                    0                    0                     
010101   00038619539RENG002 INATIVAR CONTA2                               999999999999999      999999999999999          00000000000000000                    0                    0                     
010101   00039221032CPES001 INATIVAR CONTA2                               999999999999999      999999999999999          00000000000000000                    0                    0                     
010101   00040769313CPES003 INATIVAR CONTA2                               999999999999999      999999999999999          00000000000000000                    0                    0                     
010101   00040820874CHEP002 INATIVAR CONTA3                               999999999999999      999999999999999          00000000000000000                    0                    0                     
010101   00041976746CPES024 INATIVAR CONTA2                               999999999999999      999999999999999          00000000000000000                    0                    0                     
010101   00042013100CPES002 INATIVAR CONTA3                               999999999999999      999999999999999          00000000000000000                    0                    0                     
010101   00046858571CPES001 INATIVAR CONTA2                               999999999999999      999999999999999          00000000000000000                    0                    0                     
010101   00046917500CPES001 INATIVAR CONTA2                               999999999999999      999999999999999          00000000000000000                    0                    0                     
010101   00046917500CPES002 INATIVAR CONTA2                               999999999999999      999999999999999          00000000000000000                    0                    0                     
010101   00047047380CPES007 INATIVAR CONTA2                               999999999999999      999999999999999          00000000000000000                    0                    0                     
010101   00048889105CPES006 INATIVAR CONTA2                               999999999999999      999999999999999          00000000000000000                    0                    0                     
010101   00048966371CPES002 INATIVAR CONTA2                               999999999999999      999999999999999          00000000000000000                    0                    0                     
010101   00048973157CPES001 INATIVAR CONTA3                               000489731000057      00048973157              00000000000000000                    0                    0                     
010101   00050837613RENG002 INATIVAR CONTA2                               999999999999999      999999999999999          00000000000000000                    0                    0                     
010101   00052330893RENG006 INATIVAR CONTA2                               999999999999999      999999999999999          00000000000000000                    0                    0                     
010101   00053681380CPES027 INATIVAR CONTA3                               999999999999999      999999999999999          00000000000000000                    0                    0                     
010101   00053681380CPES030 INATIVAR CONTA3                               999999999999999      999999999999999          00000000000000000                    0                    0                     
010101   00053975537CPES002 INATIVAR CONTA3                               999999999999999      999999999999999          00000000000000000                    0                    0                     
010101   00054867770CPES001 INATIVAR CONTA2                               999999999999999      999999999999999          00000000000000000                    0                    0                     
010101   00054867770CPES002 INATIVAR CONTA2                               999999999999999      999999999999999          00000000000000000                    0                    0                     
010101   00058121781CPES003 INATIVAR CONTA3                               000581217000081      00058121781              00000000000000000                    0                    0                     
010101   00059359706CPES002 INATIVAR CONTA2                               999999999999999      999999999999999          00000000000000000                    0                    0                     
010101   00061827630CPES002 INATIVAR CONTA2                               999999999999999      999999999999999          00000000000000000                    0                    0                     
010101   00062586203CPES001 INATIVAR CONTA2                               999999999999999      999999999999999          00000000000000000                    0                    0                     
010101   00063470888CHEP001 INATIVAR CONTA3                               999999999999999      999999999999999          00000000000000000                    0                    0                     
010101   00063470888CPES001 INATIVAR CONTA3                               999999999999999      999999999999999          00000000000000000                    0                    0                     
010101   00064172996CPES001 INATIVAR CONTA2                               999999999999999      999999999999999          00000000000000000                    0                    0                     
010101   00064172996CPES002 INATIVAR CONTA2                               999999999999999      999999999999999          00000000000000000                    0                    0                     
010101   00066227127CPES001 INATIVAR CONTA2                               999999999999999      999999999999999          00000000000000000                    0                    0                     
010101   00066345162CPES001 INATIVAR CONTA3                               000663451000062      00066345162              00000000000000000                    0                    0                     
010101   00066646790RENG001 INATIVAR CONTA2                               999999999999999      999999999999999          00000000000000000                    0                    0                     
010101   00067239269CPES001 INATIVAR CONTA3                               000672392000069      00067239269              00000000000000000                    0                    0                     
010101   00068031564CPES005 INATIVAR CONTA3                               000680315000064      00068031564              00000000000000000                    0                    0                     
010101   00068088671CPES001 INATIVAR CONTA2                               999999999999999      999999999999999          00000000000000000                    0                    0                     
010101   00070000140CPES008 INATIVAR CONTA2                               999999999999999      999999999999999          00000000000000000                    0                    0                     
010101   00070053774CPES003 INATIVAR CONTA2                               999999999999999      999999999999999          00000000000000000                    0                    0                     
010101   00070053774CPES004 INATIVAR CONTA2                               999999999999999      999999999999999          00000000000000000                    0                    0                     
010101   00070053774CPES005 INATIVAR CONTA2                               999999999999999      999999999999999          00000000000000000                    0                    0                     
010101   00070053774CPES006 INATIVAR CONTA2                               999999999999999      999999999999999          00000000000000000                    0                    0                     
010101   00070053774CPES007 INATIVAR CONTA2                               999999999999999      999999999999999          00000000000000000                    0                    0                     
010101   00070053774CPES008 INATIVAR CONTA2                               999999999999999      999999999999999          00000000000000000                    0                    0                     
010101   00070053774CPES009 INATIVAR CONTA2                               999999999999999      999999999999999          00000000000000000                    0                    0                     
010101   00070053774CPES010 INATIVAR CONTA2                               999999999999999      999999999999999          00000000000000000                    0                    0                     
010101   00070053774CPES011 INATIVAR CONTA2                               999999999999999      999999999999999          00000000000000000                    0                    0                     
010101   00071107665CPES005 INATIVAR CONTA2                               999999999999999      999999999999999          00000000000000000                    0                    0                     
010101   00071258019RENG002 INATIVAR CONTA3                               000712580000019      00071258019              00000000000000000                    0                    0                     
010101   00072424257CPES001 INATIVAR CONTA2                               999999999999999      999999999999999          00000000000000000                    0                    0                     
                                                                                                                                                                                                        
CONTAS A SEREM INATIVADAS - CARTEIRA PF        21/05/2014        14:48:09        - 3 -                                                                                                                  
                                                                                                                                                                                                        
LOCATION CONTA CACS         CUSTOMER NAME                                 SOCIAL SEC           CUSTOMER-INFO            PHONE                     TOTAL-DELINQ             INTEREST                     
-------- ------------------ --------------------------------------------- -------------------- ------------------------ ----------------- -------------------- --------------------                     
010101   00072677112CPES001 INATIVAR CONTA2                               999999999999999      999999999999999          00000000000000000                    0                    0                     
010101   00076682013CPES013 INATIVAR CONTA2                               999999999999999      999999999999999          00000000000000000                    0                    0                     
010101   00076682013CPES014 INATIVAR CONTA2                               999999999999999      999999999999999          00000000000000000                    0                    0                     
010101   00077357825CHEP001 INATIVAR CONTA3                               999999999999999      999999999999999          00000000000000000                    0                    0                     
010101   00077357825CHEP002 INATIVAR CONTA3                               999999999999999      999999999999999          00000000000000000                    0                    0                     
010101   00077784650RENG001 INATIVAR CONTA2                               999999999999999      999999999999999          00000000000000000                    0                    0                     
010101   00078764670CDCV001 INATIVAR CONTA2                               999999999999999      999999999999999          00000000000000000                    0                    0                     
010101   00078853346CPES010 INATIVAR CONTA2                               999999999999999      999999999999999          00000000000000000                    0                    0                     
010101   00078881048DBAU001 INATIVAR CONTA2                               999999999999999      999999999999999          00000000000000000                    0                    0                     
010101   00078881048DBAU002 INATIVAR CONTA2                               999999999999999      999999999999999          00000000000000000                    0                    0                     
010101   00080248209DBAU001 INATIVAR CONTA3                               000802482000009      00080248209              00000000000000000                    0                    0                     
010101   00081413041CDCV001 INATIVAR CONTA2                               999999999999999      999999999999999          00000000000000000                    0                    0                     
010101   00081859058CPES001 INATIVAR CONTA2                               999999999999999      999999999999999          00000000000000000                    0                    0                     
010101   00083648186CPES001 INATIVAR CONTA2                               999999999999999      999999999999999          00000000000000000                    0                    0                     
010101   00083784799DCCO001 INATIVAR CONTA3                               999999999999999      999999999999999          00000000000000000                    0                    0                     
010101   00084390522CPES002 INATIVAR CONTA2                               999999999999999      999999999999999          00000000000000000                    0                    0                     
010101   00085353701DCCO001 INATIVAR CONTA3                               999999999999999      999999999999999          00000000000000000                    0                    0                     
010101   00086565176CPES011 INATIVAR CONTA2                               999999999999999      999999999999999          00000000000000000                    0                    0                     
010101   00086914286CPES005 INATIVAR CONTA2                               999999999999999      999999999999999          00000000000000000                    0                    0                     
010101   00088292096CPES001 INATIVAR CONTA3                               999999999999999      999999999999999          00000000000000000                    0                    0                     
010101   00088462196CPES004 INATIVAR CONTA2                               999999999999999      999999999999999          00000000000000000                    0                    0                     
010101   00088817156RENG001 INATIVAR CONTA3                               000888171000056      00088817156              00000000000000000                    0                    0                     
010101   00089132262CPES001 INATIVAR CONTA3                               000891322000062      00089132262              00000000000000000                    0                    0                     
010101   00089776070DBAU001 INATIVAR CONTA3                               000897760000070      00089776070              00000000000000000                    0                    0                     
010101   00090339550CPES001 INATIVAR CONTA2                               999999999999999      999999999999999          00000000000000000                    0                    0                     
010101   00091541590CPES001 INATIVAR CONTA2                               999999999999999      999999999999999          00000000000000000                    0                    0                     
010101   00091819628CPES003 INATIVAR CONTA2                               999999999999999      999999999999999          00000000000000000                    0                    0                     
010101   00092956076CDCV001 INATIVAR CONTA2                               999999999999999      999999999999999          00000000000000000                    0                    0                     
010101   00093206364CPES003 INATIVAR CONTA3                               000932063000064      00093206364              00000000000000000                    0                    0                     
010101   00094020205CPES009 INATIVAR CONTA3                               000940202000005      00094020205              00000000000000000                    0                    0                     
010101   00095920757CPES001 INATIVAR CONTA3                               000959207000057      00095920757              00000000000000000                    0                    0                     
010101   00096551151CHEP001 INATIVAR CONTA3                               999999999999999      999999999999999          00000000000000000                    0                    0                     
010101   00097016560CPES006 INATIVAR CONTA2                               999999999999999      999999999999999          00000000000000000                    0                    0                     
010101   00097818542CPES001 INATIVAR CONTA2                               999999999999999      999999999999999          00000000000000000                    0                    0                     
010101   00098031147RENG001 INATIVAR CONTA2                               999999999999999      999999999999999          00000000000000000                    0                    0                     
010101   00098789201CPES001 INATIVAR CONTA2                               999999999999999      999999999999999          00000000000000000                    0                    0                     
010101   00100303870CPES002 INATIVAR CONTA2                               999999999999999      999999999999999          00000000000000000                    0                    0                     
010101   00100806198CPES011 INATIVAR CONTA2                               999999999999999      999999999999999          00000000000000000                    0                    0                     
010101   00100806198CPES012 INATIVAR CONTA2                               999999999999999      999999999999999          00000000000000000                    0                    0                     
010101   00100806198CPES013 INATIVAR CONTA2                               999999999999999      999999999999999          00000000000000000                    0                    0                     
010101   00102324271CPES003 INATIVAR CONTA3                               001023242000071      00102324271              00000000000000000                    0                    0                     
010101   00102605360CPES002 INATIVAR CONTA2                               999999999999999      999999999999999          00000000000000000                    0                    0                     
010101   00104480394CPES009 INATIVAR CONTA2                               999999999999999      999999999999999          00000000000000000                    0                    0                     
010101   00104504161CPES003 INATIVAR CONTA3                               001045041000061      00104504161              00000000000000000                    0                    0                     
010101   00106751670DBAU001 INATIVAR CONTA3                               001067516000070      00106751670              00000000000000000                    0                    0                     
010101   00107138832CPES001 INATIVAR CONTA3                               001071388000032      00107138832              00000000000000000                    0                    0                     
010101   00107138832CPES003 INATIVAR CONTA3                               001071388000032      00107138832              00000000000000000                    0                    0                     
010101   00107369214CDCM001 INATIVAR CONTA2                               999999999999999      999999999999999          00000000000000000                    0                    0                     
010101   00107369214CPES001 INATIVAR CONTA2                               999999999999999      999999999999999          00000000000000000                    0                    0                     
010101   00109887182DBAU001 INATIVAR CONTA3                               001098871000082      00109887182              00000000000000000                    0                    0                     
010101   00110068629RENG001 INATIVAR CONTA3                               001100686000029      00110068629              00000000000000000                    0                    0                     
010101   00110211014RENG006 INATIVAR CONTA2                               999999999999999      999999999999999          00000000000000000                    0                    0                     
010101   00110786009CPES004 INATIVAR CONTA2                               999999999999999      999999999999999          00000000000000000                    0                    0                     
010101   00110792661CPES001 INATIVAR CONTA3                               001107926000061      00110792661              00000000000000000                    0                    0                     
                                                                                                                                                                                                        
CONTAS A SEREM INATIVADAS - CARTEIRA PF        21/05/2014        14:48:09        - 4 -                                                                                                                  
                                                                                                                                                                                                        
LOCATION CONTA CACS         CUSTOMER NAME                                 SOCIAL SEC           CUSTOMER-INFO            PHONE                     TOTAL-DELINQ             INTEREST                     
-------- ------------------ --------------------------------------------- -------------------- ------------------------ ----------------- -------------------- --------------------                     
010101   00112096905CPMF001 INATIVAR CONTA3                               999999999999999      999999999999999          00000000000000000                    0                    0                     
010101   00112372287DBAU002 INATIVAR CONTA3                               999999999999999      999999999999999          00000000000000000                    0                    0                     
010101   00113757018CPES012 INATIVAR CONTA2                               999999999999999      999999999999999          00000000000000000                    0                    0                     
010101   00113757018CPES017 INATIVAR CONTA2                               999999999999999      999999999999999          00000000000000000                    0                    0                     
010101   00115892303CPES001 INATIVAR CONTA2                               999999999999999      999999999999999          00000000000000000                    0                    0                     
010101   00115892303CPES002 INATIVAR CONTA2                               999999999999999      999999999999999          00000000000000000                    0                    0                     
010101   00115892303CPES003 INATIVAR CONTA2                               999999999999999      999999999999999          00000000000000000                    0                    0                     
010101   00119682141CPES001 INATIVAR CONTA2                               999999999999999      999999999999999          00000000000000000                    0                    0                     
010101   00120611236CPES001 INATIVAR CONTA2                               999999999999999      999999999999999          00000000000000000                    0                    0                     
010101   00121822737CPES002 INATIVAR CONTA2                               999999999999999      999999999999999          00000000000000000                    0                    0                     
010101   00122566173CPES008 INATIVAR CONTA2                               999999999999999      999999999999999          00000000000000000                    0                    0                     
010101   00123212065RENG003 INATIVAR CONTA2                               999999999999999      999999999999999          00000000000000000                    0                    0                     
010101   00124225683CPES001 INATIVAR CONTA2                               999999999999999      999999999999999          00000000000000000                    0                    0                     
010101   00124280862RENG002 INATIVAR CONTA2                               999999999999999      999999999999999          00000000000000000                    0                    0                     
010101   00124821707CPES005 INATIVAR CONTA2                               999999999999999      999999999999999          00000000000000000                    0                    0                     
010101   00125299745CPES003 INATIVAR CONTA3                               999999999999999      999999999999999          00000000000000000                    0                    0                     
010101   00125748132CPES001 INATIVAR CONTA2                               999999999999999      999999999999999          00000000000000000                    0                    0                     
010101   00126851433DCCO001 INATIVAR CONTA3                               999999999999999      999999999999999          00000000000000000                    0                    0                     
010101   00126891060CPES002 INATIVAR CONTA2                               999999999999999      999999999999999          00000000000000000                    0                    0                     
010101   00128202963CPES001 INATIVAR CONTA3                               001282029000063      00128202963              00000000000000000                    0                    0                     
010101   00129842133CPES002 INATIVAR CONTA2                               999999999999999      999999999999999          00000000000000000                    0                    0                     
010101   00130646148CPES001 INATIVAR CONTA3                               001306461000048      00130646148              00000000000000000                    0                    0                     
010101   00130952850CDCV001 INATIVAR CONTA2                               999999999999999      999999999999999          00000000000000000                    0                    0                     
010101   00131339001CPES001 INATIVAR CONTA2                               999999999999999      999999999999999          00000000000000000                    0                    0                     
010101   00131602810CPES001 INATIVAR CONTA2                               999999999999999      999999999999999          00000000000000000                    0                    0                     
010101   00133006107CHEP001 INATIVAR CONTA3                               001330061000007      00133006107              00000000000000000                    0                    0                     
010101   00133113280RENG001 INATIVAR CONTA2                               999999999999999      999999999999999          00000000000000000                    0                    0                     
010101   00133958159RENG001 INATIVAR CONTA2                               999999999999999      999999999999999          00000000000000000                    0                    0                     
010101   00134367596CPES001 INATIVAR CONTA3                               001343675000096      00134367596              00000000000000000                    0                    0                     
010101   00136485278RENG002 INATIVAR CONTA2                               999999999999999      999999999999999          00000000000000000                    0                    0                     
010101   00137176341CPES005 INATIVAR CONTA2                               999999999999999      999999999999999          00000000000000000                    0                    0                     
010101   00137176341CPES007 INATIVAR CONTA2                               999999999999999      999999999999999          00000000000000000                    0                    0                     
010101   00140370250CPES001 INATIVAR CONTA2                               999999999999999      999999999999999          00000000000000000                    0                    0                     
010101   00140399828CPES047 INATIVAR CONTA2                               999999999999999      999999999999999          00000000000000000                    0                    0                     
010101   00140399828CPES048 INATIVAR CONTA2                               999999999999999      999999999999999          00000000000000000                    0                    0                     
010101   00140399828CPES049 INATIVAR CONTA2                               999999999999999      999999999999999          00000000000000000                    0                    0                     
010101   00141477857CPES008 INATIVAR CONTA3                               001414778000057      00141477857              00000000000000000                    0                    0                     
010101   00141903201RENG001 INATIVAR CONTA2                               999999999999999      999999999999999          00000000000000000                    0                    0                     
010101   00142339164CDCV001 INATIVAR CONTA2                               999999999999999      999999999999999          00000000000000000                    0                    0                     
010101   00142911348CPES001 INATIVAR CONTA2                               999999999999999      999999999999999          00000000000000000                    0                    0                     
010101   00144813165CHEP001 INATIVAR CONTA3                               001448131000065      00144813165              00000000000000000                    0                    0                     
010101   00148090796CARD002 INATIVAR CONTA3                               999999999999999      999999999999999          00000000000000000                    0                    0                     
010101   00148288120CHEP002 INATIVAR CONTA3                               999999999999999      999999999999999          00000000000000000                    0                    0                     
010101   00149124147CPES009 INATIVAR CONTA2                               999999999999999      999999999999999          00000000000000000                    0                    0                     
010101   00149174241CPES001 INATIVAR CONTA3                               001491742000041      00149174241              00000000000000000                    0                    0                     
010101   00150607300CPES001 INATIVAR CONTA2                               999999999999999      999999999999999          00000000000000000                    0                    0                     
010101   00152213775CPES004 INATIVAR CONTA2                               999999999999999      999999999999999          00000000000000000                    0                    0                     
010101   00152860533CPES001 INATIVAR CONTA2                               999999999999999      999999999999999          00000000000000000                    0                    0                     
010101   00152901159CPES001 INATIVAR CONTA2                               999999999999999      999999999999999          00000000000000000                    0                    0                     
010101   00153152583CPES001 INATIVAR CONTA3                               001531525000083      00153152583              00000000000000000                    0                    0                     
010101   00153380020CHEP001 INATIVAR CONTA3                               001533800000020      00153380020              00000000000000000                    0                    0                     
010101   00154336505DBAU001 INATIVAR CONTA3                               001543365000005      00154336505              00000000000000000                    0                    0                     
010101   00154952648RENG001 INATIVAR CONTA3                               999999999999999      999999999999999          00000000000000000                    0                    0                     
010101   00155231286CPES004 INATIVAR CONTA2                               999999999999999      999999999999999          00000000000000000                    0                    0                     
                                                                                                                                                                                                        
CONTAS A SEREM INATIVADAS - CARTEIRA PF        21/05/2014        14:48:09        - 5 -                                                                                                                  
                                                                                                                                                                                                        
LOCATION CONTA CACS         CUSTOMER NAME                                 SOCIAL SEC           CUSTOMER-INFO            PHONE                     TOTAL-DELINQ             INTEREST                     
-------- ------------------ --------------------------------------------- -------------------- ------------------------ ----------------- -------------------- --------------------                     
010101   00156041600CHEP001 INATIVAR CONTA3                               001560416000000      00156041600              00000000000000000                    0                    0                     
010101   00156362678CPES001 INATIVAR CONTA2                               999999999999999      999999999999999          00000000000000000                    0                    0                     
010101   00156407019CDCV001 INATIVAR CONTA2                               999999999999999      999999999999999          00000000000000000                    0                    0                     
010101   00159031257CPES001 INATIVAR CONTA2                               999999999999999      999999999999999          00000000000000000                    0                    0                     
010101   00159487064CPES013 INATIVAR CONTA3                               001594870000064      00159487064              00000000000000000                    0                    0                     
010101   00161367720CPES005 INATIVAR CONTA3                               001613677000020      00161367720              00000000000000000                    0                    0                     
010101   00162224150RENG002 INATIVAR CONTA3                               001622241000050      00162224150              00000000000000000                    0                    0                     
010101   00162599714DCCO001 INATIVAR CONTA3                               999999999999999      999999999999999          00000000000000000                    0                    0                     
010101   00163563730RENG003 INATIVAR CONTA2                               999999999999999      999999999999999          00000000000000000                    0                    0                     
010101   00163879290CPES002 INATIVAR CONTA2                               999999999999999      999999999999999          00000000000000000                    0                    0                     
010101   00163969108CPES001 INATIVAR CONTA2                               999999999999999      999999999999999          00000000000000000                    0                    0                     
010101   00165557400RENG001 INATIVAR CONTA3                               999999999999999      999999999999999          00000000000000000                    0                    0                     
010101   00165853646CPES007 INATIVAR CONTA3                               001658536000046      00165853646              00000000000000000                    0                    0                     
010101   00168126117CPES002 INATIVAR CONTA3                               001681261000017      00168126117              00000000000000000                    0                    0                     
010101   00169417212CPES002 INATIVAR CONTA2                               999999999999999      999999999999999          00000000000000000                    0                    0                     
010101   00169723330CPES001 INATIVAR CONTA2                               999999999999999      999999999999999          00000000000000000                    0                    0                     
010101   00170031055CPES007 INATIVAR CONTA3                               001700310000055      00170031055              00000000000000000                    0                    0                     
010101   00170694593CHEP002 INATIVAR CONTA3                               001706945000093      00170694593              00000000000000000                    0                    0                     
010101   00170880621CPES002 INATIVAR CONTA3                               001708806000021      00170880621              00000000000000000                    0                    0                     
010101   00170902293CPES001 INATIVAR CONTA2                               999999999999999      999999999999999          00000000000000000                    0                    0                     
010101   00172615119DBAU001 INATIVAR CONTA2                               999999999999999      999999999999999          00000000000000000                    0                    0                     
010101   00175115850CPES001 INATIVAR CONTA3                               001751158000050      00175115850              00000000000000000                    0                    0                     
010101   00177640502CPES001 INATIVAR CONTA2                               999999999999999      999999999999999          00000000000000000                    0                    0                     
010101   00177963263CPES015 INATIVAR CONTA3                               001779632000063      00177963263              00000000000000000                    0                    0                     
010101   00178482293CPES001 INATIVAR CONTA2                               999999999999999      999999999999999          00000000000000000                    0                    0                     
010101   00178746371CPES002 INATIVAR CONTA2                               999999999999999      999999999999999          00000000000000000                    0                    0                     
010101   00180926080CPES038 INATIVAR CONTA2                               999999999999999      999999999999999          00000000000000000                    0                    0                     
010101   00180926080CPES040 INATIVAR CONTA2                               999999999999999      999999999999999          00000000000000000                    0                    0                     
010101   00181294125CDCM001 INATIVAR CONTA3                               999999999999999      999999999999999          00000000000000000                    0                    0                     
010101   00181619288CPES010 INATIVAR CONTA2                               999999999999999      999999999999999          00000000000000000                    0                    0                     
010101   00182067190CPES001 INATIVAR CONTA2                               999999999999999      999999999999999          00000000000000000                    0                    0                     
010101   00182217183RENG002 INATIVAR CONTA3                               001822171000083      00182217183              00000000000000000                    0                    0                     
010101   00182823008CPES001 INATIVAR CONTA2                               999999999999999      999999999999999          00000000000000000                    0                    0                     
010101   00183827201CPES001 INATIVAR CONTA2                               999999999999999      999999999999999          00000000000000000                    0                    0                     
010101   00185851169CPES001 INATIVAR CONTA2                               999999999999999      999999999999999          00000000000000000                    0                    0                     
010101   00186435827CIMF001 INATIVAR CONTA3                               999999999999999      999999999999999          00000000000000000                    0                    0                     
010101   00186485093CPES001 INATIVAR CONTA2                               999999999999999      999999999999999          00000000000000000                    0                    0                     
010101   00186485093CPES002 INATIVAR CONTA2                               999999999999999      999999999999999          00000000000000000                    0                    0                     
010101   00186860285RENG002 INATIVAR CONTA3                               001868602000085      00186860285              00000000000000000                    0                    0                     
010101   00187012300CHEP003 INATIVAR CONTA3                               001870123000000      00187012300              00000000000000000                    0                    0                     
010101   00187426619CPES001 INATIVAR CONTA3                               001874266000019      00187426619              00000000000000000                    0                    0                     
010101   00187591229CPES003 INATIVAR CONTA3                               001875912000029      00187591229              00000000000000000                    0                    0                     
010101   00187607400CHEP001 INATIVAR CONTA3                               999999999999999      999999999999999          00000000000000000                    0                    0                     
010101   00188177698RENG001 INATIVAR CONTA2                               999999999999999      999999999999999          00000000000000000                    0                    0                     
010101   00188312730CPES002 INATIVAR CONTA3                               999999999999999      999999999999999          00000000000000000                    0                    0                     
010101   00188312730CPES003 INATIVAR CONTA3                               999999999999999      999999999999999          00000000000000000                    0                    0                     
010101   00188589104RENG001 INATIVAR CONTA2                               999999999999999      999999999999999          00000000000000000                    0                    0                     
010101   00188728082CPES002 INATIVAR CONTA2                               999999999999999      999999999999999          00000000000000000                    0                    0                     
010101   00188926046CPES001 INATIVAR CONTA2                               999999999999999      999999999999999          00000000000000000                    0                    0                     
010101   00188926046CPES002 INATIVAR CONTA2                               999999999999999      999999999999999          00000000000000000                    0                    0                     
010101   00192095250RENG001 INATIVAR CONTA2                               999999999999999      999999999999999          00000000000000000                    0                    0                     
010101   00193417502RENG001 INATIVAR CONTA2                               999999999999999      999999999999999          00000000000000000                    0                    0                     
010101   00193425009CPES001 INATIVAR CONTA2                               999999999999999      999999999999999          00000000000000000                    0                    0                     
010101   00194973778CPES008 INATIVAR CONTA2                               999999999999999      999999999999999          00000000000000000                    0                    0                     
                                                                                                                                                                                                        
CONTAS A SEREM INATIVADAS - CARTEIRA PF        21/05/2014        14:48:09        - 6 -                                                                                                                  
                                                                                                                                                                                                        
LOCATION CONTA CACS         CUSTOMER NAME                                 SOCIAL SEC           CUSTOMER-INFO            PHONE                     TOTAL-DELINQ             INTEREST                     
-------- ------------------ --------------------------------------------- -------------------- ------------------------ ----------------- -------------------- --------------------                     
010101   00195036875CPES002 INATIVAR CONTA2                               999999999999999      999999999999999          00000000000000000                    0                    0                     
010101   00195380061CPES001 INATIVAR CONTA2                               999999999999999      999999999999999          00000000000000000                    0                    0                     
010101   00197426654CPES001 INATIVAR CONTA2                               999999999999999      999999999999999          00000000000000000                    0                    0                     
010101   00197426654CPES002 INATIVAR CONTA2                               999999999999999      999999999999999          00000000000000000                    0                    0                     
010101   00197426654CPES003 INATIVAR CONTA2                               999999999999999      999999999999999          00000000000000000                    0                    0                     
010101   00197763146CPES002 INATIVAR CONTA2                               999999999999999      999999999999999          00000000000000000                    0                    0                     
010101   00198900520CPMF008 INATIVAR CONTA3                               999999999999999      999999999999999          00000000000000000                    0                    0                     
010101   00198900520CPMF009 INATIVAR CONTA3                               999999999999999      999999999999999          00000000000000000                    0                    0                     
010101   00199088063CDCV001 INATIVAR CONTA2                               999999999999999      999999999999999          00000000000000000                    0                    0                     
010101   00200490567CPES001 INATIVAR CONTA2                               999999999999999      999999999999999          00000000000000000                    0                    0                     
010101   00200889575CPES005 INATIVAR CONTA2                               999999999999999      999999999999999          00000000000000000                    0                    0                     
010101   00201418746CPES008 INATIVAR CONTA2                               999999999999999      999999999999999          00000000000000000                    0                    0                     
010101   00201577704CPES004 INATIVAR CONTA2                               999999999999999      999999999999999          00000000000000000                    0                    0                     
010101   00201921189CPES001 INATIVAR CONTA2                               999999999999999      999999999999999          00000000000000000                    0                    0                     
010101   00203156862DBAU001 INATIVAR CONTA2                               999999999999999      999999999999999          00000000000000000                    0                    0                     
010101   00203432304CPMF001 INATIVAR CONTA3                               999999999999999      999999999999999          00000000000000000                    0                    0                     
010101   00205124305CPES005 INATIVAR CONTA3                               999999999999999      999999999999999          00000000000000000                    0                    0                     
010101   00205201237CPES001 INATIVAR CONTA2                               999999999999999      999999999999999          00000000000000000                    0                    0                     
010101   00206254806RENG001 INATIVAR CONTA2                               999999999999999      999999999999999          00000000000000000                    0                    0                     
010101   00208338144CPES003 INATIVAR CONTA2                               999999999999999      999999999999999          00000000000000000                    0                    0                     
010101   00208338144DBAU001 INATIVAR CONTA2                               999999999999999      999999999999999          00000000000000000                    0                    0                     
010101   00209674547RENG001 INATIVAR CONTA2                               999999999999999      999999999999999          00000000000000000                    0                    0                     
010101   00209997710DBAU002 INATIVAR CONTA2                               999999999999999      999999999999999          00000000000000000                    0                    0                     
010101   00210546301CPES001 INATIVAR CONTA2                               999999999999999      999999999999999          00000000000000000                    0                    0                     
010101   00210546301CPES002 INATIVAR CONTA2                               999999999999999      999999999999999          00000000000000000                    0                    0                     
010101   00210856840CPES005 INATIVAR CONTA3                               002108568000040      00210856840              00000000000000000                    0                    0                     
010101   00213298007RENG001 INATIVAR CONTA3                               002132980000007      00213298007              00000000000000000                    0                    0                     
010101   00216760895DCHQ005 INATIVAR CONTA3                               999999999999999      999999999999999          00000000000000000                    0                    0                     
010101   00216760895DCHQ006 INATIVAR CONTA3                               999999999999999      999999999999999          00000000000000000                    0                    0                     
010101   00216760895DCHQ007 INATIVAR CONTA3                               999999999999999      999999999999999          00000000000000000                    0                    0                     
010101   00216760895DCHQ008 INATIVAR CONTA3                               999999999999999      999999999999999          00000000000000000                    0                    0                     
010101   00218531265CPES002 INATIVAR CONTA2                               999999999999999      999999999999999          00000000000000000                    0                    0                     
010101   00218681313RENG004 INATIVAR CONTA3                               002186813000013      00218681313              00000000000000000                    0                    0                     
010101   00221617590CPES013 INATIVAR CONTA2                               999999999999999      999999999999999          00000000000000000                    0                    0                     
010101   00221617590CPES014 INATIVAR CONTA2                               999999999999999      999999999999999          00000000000000000                    0                    0                     
010101   00221617590CPES015 INATIVAR CONTA2                               999999999999999      999999999999999          00000000000000000                    0                    0                     
010101   00223572896RENG001 INATIVAR CONTA2                               999999999999999      999999999999999          00000000000000000                    0                    0                     
010101   00225447550CDCV001 INATIVAR CONTA2                               999999999999999      999999999999999          00000000000000000                    0                    0                     
010101   00226193640CPES002 INATIVAR CONTA3                               002261936000040      00226193640              00000000000000000                    0                    0                     
010101   00227471172CPES001 INATIVAR CONTA3                               002274711000072      00227471172              00000000000000000                    0                    0                     
010101   00227495608CPES001 INATIVAR CONTA3                               999999999999999      999999999999999          00000000000000000                    0                    0                     
010101   00227724569RENG001 INATIVAR CONTA3                               002277245000069      00227724569              00000000000000000                    0                    0                     
010101   00228164532CPES006 INATIVAR CONTA2                               999999999999999      999999999999999          00000000000000000                    0                    0                     
010101   00229041744RENG001 INATIVAR CONTA2                               999999999999999      999999999999999          00000000000000000                    0                    0                     
010101   00229425569CPES002 INATIVAR CONTA2                               999999999999999      999999999999999          00000000000000000                    0                    0                     
010101   00229425569CPES003 INATIVAR CONTA2                               999999999999999      999999999999999          00000000000000000                    0                    0                     
010101   00229532640CARD002 INATIVAR CONTA3                               999999999999999      999999999999999          00000000000000000                    0                    0                     
010101   00229910424RENG001 INATIVAR CONTA3                               002299104000024      00229910424              00000000000000000                    0                    0                     
010101   00230131174CPES001 INATIVAR CONTA2                               999999999999999      999999999999999          00000000000000000                    0                    0                     
010101   00230362222CPES002 INATIVAR CONTA3                               002303622000022      00230362222              00000000000000000                    0                    0                     
010101   00231412630CPES001 INATIVAR CONTA2                               999999999999999      999999999999999          00000000000000000                    0                    0                     
010101   00231589727CARD001 INATIVAR CONTA3                               999999999999999      999999999999999          00000000000000000                    0                    0                     
010101   00232425825CPES002 INATIVAR CONTA2                               999999999999999      999999999999999          00000000000000000                    0                    0                     
010101   00234505508CPES008 INATIVAR CONTA3                               002345055000008      00234505508              00000000000000000                    0                    0                     
                                                                                                                                                                                                        
CONTAS A SEREM INATIVADAS - CARTEIRA PF        21/05/2014        14:48:09        - 7 -                                                                                                                  
                                                                                                                                                                                                        
LOCATION CONTA CACS         CUSTOMER NAME                                 SOCIAL SEC           CUSTOMER-INFO            PHONE                     TOTAL-DELINQ             INTEREST                     
-------- ------------------ --------------------------------------------- -------------------- ------------------------ ----------------- -------------------- --------------------                     
010101   00234668555CPES001 INATIVAR CONTA2                               999999999999999      999999999999999          00000000000000000                    0                    0                     
010101   00235483397CPES001 INATIVAR CONTA2                               999999999999999      999999999999999          00000000000000000                    0                    0                     
010101   00235928500RENG002 INATIVAR CONTA3                               002359285000000      00235928500              00000000000000000                    0                    0                     
010101   00238987043CPES001 INATIVAR CONTA3                               002389870000043      00238987043              00000000000000000                    0                    0                     
010101   00241090610RENG004 INATIVAR CONTA3                               002410906000010      00241090610              00000000000000000                    0                    0                     
010101   00243111118CPES003 INATIVAR CONTA3                               999999999999999      999999999999999          00000000000000000                    0                    0                     
010101   00243170394CPES002 INATIVAR CONTA3                               002431703000094      00243170394              00000000000000000                    0                    0                     
010101   00243204043CPES002 INATIVAR CONTA2                               999999999999999      999999999999999          00000000000000000                    0                    0                     
010101   00245686002CPES001 INATIVAR CONTA2                               999999999999999      999999999999999          00000000000000000                    0                    0                     
010101   00247734098CPES026 INATIVAR CONTA2                               999999999999999      999999999999999          00000000000000000                    0                    0                     
010101   00248047035CPES001 INATIVAR CONTA2                               999999999999999      999999999999999          00000000000000000                    0                    0                     
010101   00249374366CPES003 INATIVAR CONTA2                               999999999999999      999999999999999          00000000000000000                    0                    0                     
010101   00250054728CPES002 INATIVAR CONTA2                               999999999999999      999999999999999          00000000000000000                    0                    0                     
010101   00250291266CPES001 INATIVAR CONTA2                               999999999999999      999999999999999          00000000000000000                    0                    0                     
010101   00250291266CPES002 INATIVAR CONTA2                               999999999999999      999999999999999          00000000000000000                    0                    0                     
010101   00250291266CPES003 INATIVAR CONTA2                               999999999999999      999999999999999          00000000000000000                    0                    0                     
010101   00250843307CPES004 INATIVAR CONTA2                               999999999999999      999999999999999          00000000000000000                    0                    0                     
010101   00250843307CPES005 INATIVAR CONTA2                               999999999999999      999999999999999          00000000000000000                    0                    0                     
010101   00251864693CPES002 INATIVAR CONTA2                               999999999999999      999999999999999          00000000000000000                    0                    0                     
010101   00252290526CPES001 INATIVAR CONTA2                               999999999999999      999999999999999          00000000000000000                    0                    0                     
010101   00252400801CIAL001 INATIVAR CONTA2                               999999999999999      999999999999999          00000000000000000                    0                    0                     
010101   00253635144CDCV001 INATIVAR CONTA3                               002536351000044      00253635144              00000000000000000                    0                    0                     
010101   00254316255CPES001 INATIVAR CONTA2                               999999999999999      999999999999999          00000000000000000                    0                    0                     
010101   00255200838CHEP001 INATIVAR CONTA3                               002552008000038      00255200838              00000000000000000                    0                    0                     
010101   00255773528CPES001 INATIVAR CONTA3                               002557735000028      00255773528              00000000000000000                    0                    0                     
010101   00256320519CPES001 INATIVAR CONTA3                               002563205000019      00256320519              00000000000000000                    0                    0                     
010101   00256441731CPES018 INATIVAR CONTA3                               999999999999999      999999999999999          00000000000000000                    0                    0                     
010101   00259049220CPES002 INATIVAR CONTA2                               999999999999999      999999999999999          00000000000000000                    0                    0                     
010101   00260261122CPES002 INATIVAR CONTA3                               002602611000022      00260261122              00000000000000000                    0                    0                     
010101   00260387142CPES001 INATIVAR CONTA3                               002603871000042      00260387142              00000000000000000                    0                    0                     
010101   00260638161CPES001 INATIVAR CONTA2                               999999999999999      999999999999999          00000000000000000                    0                    0                     
010101   00260638161CPES002 INATIVAR CONTA2                               999999999999999      999999999999999          00000000000000000                    0                    0                     
010101   00261739301CPES002 INATIVAR CONTA2                               999999999999999      999999999999999          00000000000000000                    0                    0                     
010101   00261739301CPES003 INATIVAR CONTA2                               999999999999999      999999999999999          00000000000000000                    0                    0                     
010101   00262455315CPES001 INATIVAR CONTA3                               999999999999999      999999999999999          00000000000000000                    0                    0                     
010101   00262455315CPES006 INATIVAR CONTA3                               999999999999999      999999999999999          00000000000000000                    0                    0                     
010101   00264778235CPES002 INATIVAR CONTA3                               002647782000035      00264778235              00000000000000000                    0                    0                     
010101   00266676065CPES002 INATIVAR CONTA2                               999999999999999      999999999999999          00000000000000000                    0                    0                     
010101   00267680384RENG002 INATIVAR CONTA3                               002676803000084      00267680384              00000000000000000                    0                    0                     
010101   00268163693CPES003 INATIVAR CONTA3                               002681636000093      00268163693              00000000000000000                    0                    0                     
010101   00268318050CPES002 INATIVAR CONTA2                               999999999999999      999999999999999          00000000000000000                    0                    0                     
010101   00270413014CPES003 INATIVAR CONTA2                               999999999999999      999999999999999          00000000000000000                    0                    0                     
010101   00270413014CPES004 INATIVAR CONTA2                               999999999999999      999999999999999          00000000000000000                    0                    0                     
010101   00270413014CPES005 INATIVAR CONTA2                               999999999999999      999999999999999          00000000000000000                    0                    0                     
010101   00271389257CPES001 INATIVAR CONTA3                               002713892000057      00271389257              00000000000000000                    0                    0                     
010101   00272124320CPES008 INATIVAR CONTA3                               999999999999999      999999999999999          00000000000000000                    0                    0                     
010101   00276338103CPES011 INATIVAR CONTA3                               002763381000003      00276338103              00000000000000000                    0                    0                     
010101   00277097525CDCV001 INATIVAR CONTA2                               999999999999999      999999999999999          00000000000000000                    0                    0                     
010101   00277855640CPES006 INATIVAR CONTA2                               999999999999999      999999999999999          00000000000000000                    0                    0                     
010101   00277943507CPES001 INATIVAR CONTA3                               002779435000007      00277943507              00000000000000000                    0                    0                     
010101   00278070108RENG004 INATIVAR CONTA3                               002780701000008      00278070108              00000000000000000                    0                    0                     
010101   00278070108RENG005 INATIVAR CONTA3                               002780701000008      00278070108              00000000000000000                    0                    0                     
010101   00278692885CPES001 INATIVAR CONTA2                               999999999999999      999999999999999          00000000000000000                    0                    0                     
010101   00279068689CPES002 INATIVAR CONTA2                               999999999999999      999999999999999          00000000000000000                    0                    0                     
                                                                                                                                                                                                        
CONTAS A SEREM INATIVADAS - CARTEIRA PF        21/05/2014        14:48:09        - 8 -                                                                                                                  
                                                                                                                                                                                                        
LOCATION CONTA CACS         CUSTOMER NAME                                 SOCIAL SEC           CUSTOMER-INFO            PHONE                     TOTAL-DELINQ             INTEREST                     
-------- ------------------ --------------------------------------------- -------------------- ------------------------ ----------------- -------------------- --------------------                     
010101   00280071310CPES007 INATIVAR CONTA2                               999999999999999      999999999999999          00000000000000000                    0                    0                     
010101   00280784899CPES001 INATIVAR CONTA2                               999999999999999      999999999999999          00000000000000000                    0                    0                     
010101   00281211205CPES001 INATIVAR CONTA2                               999999999999999      999999999999999          00000000000000000                    0                    0                     
010101   00282908102CPES001 INATIVAR CONTA2                               999999999999999      999999999999999          00000000000000000                    0                    0                     
010101   00283739606DCCO001 INATIVAR CONTA2                               999999999999999      999999999999999          00000000000000000                    0                    0                     
010101   00285959719CPES001 INATIVAR CONTA2                               999999999999999      999999999999999          00000000000000000                    0                    0                     
010101   00286515105CPES002 INATIVAR CONTA2                               999999999999999      999999999999999          00000000000000000                    0                    0                     
010101   00287803295CPES001 INATIVAR CONTA3                               002878032000095      00287803295              00000000000000000                    0                    0                     
010101   00288333179RENG001 INATIVAR CONTA2                               999999999999999      999999999999999          00000000000000000                    0                    0                     
010101   00289551374CPES003 INATIVAR CONTA3                               002895513000074      00289551374              00000000000000000                    0                    0                     
010101   00289930472CHEP002 INATIVAR CONTA3                               999999999999999      999999999999999          00000000000000000                    0                    0                     
010101   00290633370CPES020 INATIVAR CONTA3                               999999999999999      999999999999999          00000000000000000                    0                    0                     
010101   00290633370CPES021 INATIVAR CONTA3                               999999999999999      999999999999999          00000000000000000                    0                    0                     
010101   00290633370CPES022 INATIVAR CONTA3                               999999999999999      999999999999999          00000000000000000                    0                    0                     
010101   00290633370CPES025 INATIVAR CONTA3                               999999999999999      999999999999999          00000000000000000                    0                    0                     
010101   00290633370CPES026 INATIVAR CONTA3                               999999999999999      999999999999999          00000000000000000                    0                    0                     
010101   00290633370CPES027 INATIVAR CONTA3                               999999999999999      999999999999999          00000000000000000                    0                    0                     
010101   00290633370CPES028 INATIVAR CONTA3                               999999999999999      999999999999999          00000000000000000                    0                    0                     
010101   00290633370CPES029 INATIVAR CONTA3                               999999999999999      999999999999999          00000000000000000                    0                    0                     
010101   00290633370CPES033 INATIVAR CONTA3                               999999999999999      999999999999999          00000000000000000                    0                    0                     
010101   00290633370CPES040 INATIVAR CONTA3                               999999999999999      999999999999999          00000000000000000                    0                    0                     
010101   00290864852RENG001 INATIVAR CONTA3                               999999999999999      999999999999999          00000000000000000                    0                    0                     
010101   00292705026RENG001 INATIVAR CONTA3                               999999999999999      999999999999999          00000000000000000                    0                    0                     
010101   00293754527CPES001 INATIVAR CONTA2                               999999999999999      999999999999999          00000000000000000                    0                    0                     
010101   00293754527CPES002 INATIVAR CONTA2                               999999999999999      999999999999999          00000000000000000                    0                    0                     
010101   00294797890CPES001 INATIVAR CONTA3                               002947978000090      00294797890              00000000000000000                    0                    0                     
010101   00295214759CDCV001 INATIVAR CONTA2                               999999999999999      999999999999999          00000000000000000                    0                    0                     
010101   00296203173CPES003 INATIVAR CONTA2                               999999999999999      999999999999999          00000000000000000                    0                    0                     
010101   00296237582CPES002 INATIVAR CONTA2                               999999999999999      999999999999999          00000000000000000                    0                    0                     
010101   00297976168CPMF001 INATIVAR CONTA3                               999999999999999      999999999999999          00000000000000000                    0                    0                     
010101   00298555271RENG002 INATIVAR CONTA2                               999999999999999      999999999999999          00000000000000000                    0                    0                     
010101   00298615860CDCV001 INATIVAR CONTA3                               002986158000060      00298615860              00000000000000000                    0                    0                     
010101   00299050874CPES003 INATIVAR CONTA3                               002990508000074      00299050874              00000000000000000                    0                    0                     
010101   00301933111CPES001 INATIVAR CONTA2                               999999999999999      999999999999999          00000000000000000                    0                    0                     
010101   00302536086CPES001 INATIVAR CONTA2                               999999999999999      999999999999999          00000000000000000                    0                    0                     
010101   00302893199CPES001 INATIVAR CONTA3                               003028931000099      00302893199              00000000000000000                    0                    0                     
010101   00304275174CPES001 INATIVAR CONTA2                               999999999999999      999999999999999          00000000000000000                    0                    0                     
010101   00305065491DCCO001 INATIVAR CONTA3                               999999999999999      999999999999999          00000000000000000                    0                    0                     
010101   00305510800DCCO001 INATIVAR CONTA3                               999999999999999      999999999999999          00000000000000000                    0                    0                     
010101   00305570110CIMF001 INATIVAR CONTA3                               999999999999999      999999999999999          00000000000000000                    0                    0                     
010101   00308176847CPES002 INATIVAR CONTA3                               003081768000047      00308176847              00000000000000000                    0                    0                     
010101   00308378636CPES002 INATIVAR CONTA2                               999999999999999      999999999999999          00000000000000000                    0                    0                     
010101   00311178057CPES002 INATIVAR CONTA2                               999999999999999      999999999999999          00000000000000000                    0                    0                     
010101   00314105107CPES001 INATIVAR CONTA3                               003141051000007      00314105107              00000000000000000                    0                    0                     
010101   00314337660CHEP001 INATIVAR CONTA3                               999999999999999      999999999999999          00000000000000000                    0                    0                     
010101   00314337660CPES001 INATIVAR CONTA3                               999999999999999      999999999999999          00000000000000000                    0                    0                     
010101   00316226823CPES002 INATIVAR CONTA2                               999999999999999      999999999999999          00000000000000000                    0                    0                     
010101   00318836645CIAL001 INATIVAR CONTA2                               999999999999999      999999999999999          00000000000000000                    0                    0                     
010101   00319282503CPES003 INATIVAR CONTA3                               003192825000003      00319282503              00000000000000000                    0                    0                     
010101   00319528871CPES003 INATIVAR CONTA3                               003195288000071      00319528871              00000000000000000                    0                    0                     
010101   00319574555CPES002 INATIVAR CONTA2                               999999999999999      999999999999999          00000000000000000                    0                    0                     
010101   00319575012RENG005 INATIVAR CONTA3                               003195750000012      00319575012              00000000000000000                    0                    0                     
010101   00320752194RENG001 INATIVAR CONTA3                               999999999999999      999999999999999          00000000000000000                    0                    0                     
010101   00320870987DCCO001 INATIVAR CONTA3                               999999999999999      999999999999999          00000000000000000                    0                    0                     
                                                                                                                                                                                                        
CONTAS A SEREM INATIVADAS - CARTEIRA PF        21/05/2014        14:48:09        - 9 -                                                                                                                  
                                                                                                                                                                                                        
LOCATION CONTA CACS         CUSTOMER NAME                                 SOCIAL SEC           CUSTOMER-INFO            PHONE                     TOTAL-DELINQ             INTEREST                     
-------- ------------------ --------------------------------------------- -------------------- ------------------------ ----------------- -------------------- --------------------                     
010101   00320915832CPES018 INATIVAR CONTA3                               999999999999999      999999999999999          00000000000000000                    0                    0                     
010101   00322062322RENG001 INATIVAR CONTA2                               999999999999999      999999999999999          00000000000000000                    0                    0                     
010101   00322511577CPES001 INATIVAR CONTA3                               003225115000077      00322511577              00000000000000000                    0                    0                     
010101   00323160972CPMF002 INATIVAR CONTA3                               999999999999999      999999999999999          00000000000000000                    0                    0                     
010101   00323160972DCCO001 INATIVAR CONTA3                               999999999999999      999999999999999          00000000000000000                    0                    0                     
010101   00327232889CPES079 INATIVAR CONTA2                               999999999999999      999999999999999          00000000000000000                    0                    0                     
010101   00330061801CPES001 INATIVAR CONTA3                               003300618000001      00330061801              00000000000000000                    0                    0                     
010101   00330072099RENG001 INATIVAR CONTA2                               999999999999999      999999999999999          00000000000000000                    0                    0                     
010101   00330343700CPES002 INATIVAR CONTA2                               999999999999999      999999999999999          00000000000000000                    0                    0                     
010101   00330569279CPES005 INATIVAR CONTA3                               003305692000079      00330569279              00000000000000000                    0                    0                     
010101   00330985655CPES002 INATIVAR CONTA2                               999999999999999      999999999999999          00000000000000000                    0                    0                     
010101   00331279649CPES002 INATIVAR CONTA2                               999999999999999      999999999999999          00000000000000000                    0                    0                     
010101   00332369846CPES003 INATIVAR CONTA2                               999999999999999      999999999999999          00000000000000000                    0                    0                     
010101   00333657764CHEP001 INATIVAR CONTA3                               003336577000064      00333657764              00000000000000000                    0                    0                     
010101   00335109209CPES006 INATIVAR CONTA2                               999999999999999      999999999999999          00000000000000000                    0                    0                     
010101   00335433995CPES003 INATIVAR CONTA3                               003354339000095      00335433995              00000000000000000                    0                    0                     
010101   00336433000CPES006 INATIVAR CONTA2                               999999999999999      999999999999999          00000000000000000                    0                    0                     
010101   00336575807CPES006 INATIVAR CONTA3                               003365758000007      00336575807              00000000000000000                    0                    0                     
010101   00337102953CPES001 INATIVAR CONTA3                               003371029000053      00337102953              00000000000000000                    0                    0                     
